{
	"MyToken/LionheadRabbit.sol": {
		"myToken": {
			"abi": [
				{
					"constant": false,
					"inputs": [
						{
							"name": "_spender",
							"type": "address"
						},
						{
							"name": "_value",
							"type": "uint256"
						}
					],
					"name": "approve",
					"outputs": [
						{
							"name": "",
							"type": "bool"
						}
					],
					"payable": false,
					"stateMutability": "nonpayable",
					"type": "function"
				},
				{
					"constant": true,
					"inputs": [],
					"name": "totalSupply",
					"outputs": [
						{
							"name": "",
							"type": "uint256"
						}
					],
					"payable": false,
					"stateMutability": "view",
					"type": "function"
				},
				{
					"constant": false,
					"inputs": [
						{
							"name": "_from",
							"type": "address"
						},
						{
							"name": "_to",
							"type": "address"
						},
						{
							"name": "_value",
							"type": "uint256"
						}
					],
					"name": "transferFrom",
					"outputs": [
						{
							"name": "",
							"type": "bool"
						}
					],
					"payable": false,
					"stateMutability": "nonpayable",
					"type": "function"
				},
				{
					"constant": false,
					"inputs": [
						{
							"name": "_spender",
							"type": "address"
						},
						{
							"name": "_subtractedValue",
							"type": "uint256"
						}
					],
					"name": "decreaseApproval",
					"outputs": [
						{
							"name": "success",
							"type": "bool"
						}
					],
					"payable": false,
					"stateMutability": "nonpayable",
					"type": "function"
				},
				{
					"constant": true,
					"inputs": [
						{
							"name": "_owner",
							"type": "address"
						}
					],
					"name": "balanceOf",
					"outputs": [
						{
							"name": "balance",
							"type": "uint256"
						}
					],
					"payable": false,
					"stateMutability": "view",
					"type": "function"
				},
				{
					"constant": false,
					"inputs": [
						{
							"name": "listAddress",
							"type": "address"
						},
						{
							"name": "isBlackListed",
							"type": "bool"
						}
					],
					"name": "blackListAddress",
					"outputs": [
						{
							"name": "success",
							"type": "bool"
						}
					],
					"payable": false,
					"stateMutability": "nonpayable",
					"type": "function"
				},
				{
					"constant": true,
					"inputs": [],
					"name": "owner",
					"outputs": [
						{
							"name": "",
							"type": "address"
						}
					],
					"payable": false,
					"stateMutability": "view",
					"type": "function"
				},
				{
					"constant": false,
					"inputs": [
						{
							"name": "_to",
							"type": "address"
						},
						{
							"name": "_value",
							"type": "uint256"
						}
					],
					"name": "transfer",
					"outputs": [
						{
							"name": "",
							"type": "bool"
						}
					],
					"payable": false,
					"stateMutability": "nonpayable",
					"type": "function"
				},
				{
					"constant": false,
					"inputs": [
						{
							"name": "_spender",
							"type": "address"
						},
						{
							"name": "_addedValue",
							"type": "uint256"
						}
					],
					"name": "increaseApproval",
					"outputs": [
						{
							"name": "success",
							"type": "bool"
						}
					],
					"payable": false,
					"stateMutability": "nonpayable",
					"type": "function"
				},
				{
					"constant": true,
					"inputs": [
						{
							"name": "_owner",
							"type": "address"
						},
						{
							"name": "_spender",
							"type": "address"
						}
					],
					"name": "allowance",
					"outputs": [
						{
							"name": "",
							"type": "uint256"
						}
					],
					"payable": false,
					"stateMutability": "view",
					"type": "function"
				},
				{
					"constant": false,
					"inputs": [
						{
							"name": "newOwner",
							"type": "address"
						}
					],
					"name": "transferOwnership",
					"outputs": [],
					"payable": false,
					"stateMutability": "nonpayable",
					"type": "function"
				},
				{
					"anonymous": false,
					"inputs": [
						{
							"indexed": true,
							"name": "previousOwner",
							"type": "address"
						},
						{
							"indexed": true,
							"name": "newOwner",
							"type": "address"
						}
					],
					"name": "OwnershipTransferred",
					"type": "event"
				},
				{
					"anonymous": false,
					"inputs": [
						{
							"indexed": true,
							"name": "blackListed",
							"type": "address"
						},
						{
							"indexed": false,
							"name": "value",
							"type": "bool"
						}
					],
					"name": "Blacklist",
					"type": "event"
				},
				{
					"anonymous": false,
					"inputs": [
						{
							"indexed": true,
							"name": "owner",
							"type": "address"
						},
						{
							"indexed": true,
							"name": "spender",
							"type": "address"
						},
						{
							"indexed": false,
							"name": "value",
							"type": "uint256"
						}
					],
					"name": "Approval",
					"type": "event"
				},
				{
					"anonymous": false,
					"inputs": [
						{
							"indexed": true,
							"name": "from",
							"type": "address"
						},
						{
							"indexed": true,
							"name": "to",
							"type": "address"
						},
						{
							"indexed": false,
							"name": "value",
							"type": "uint256"
						}
					],
					"name": "Transfer",
					"type": "event"
				}
			],
			"devdoc": {
				"methods": {
					"transferOwnership(address)": {
						"details": "Allows the current owner to transfer control of the contract to a newOwner.\r",
						"params": {
							"newOwner": "The address to transfer ownership to.\r"
						}
					}
				}
			},
			"evm": {
				"assembly": "    /* \"MyToken/LionheadRabbit.sol\":4740:5705  contract myToken is StandardToken, Ownable {\r... */\n  mstore(0x40, 0x80)\n  callvalue\n    /* \"--CODEGEN--\":8:17   */\n  dup1\n    /* \"--CODEGEN--\":5:7   */\n  iszero\n  tag_1\n  jumpi\n    /* \"--CODEGEN--\":30:31   */\n  0x0\n    /* \"--CODEGEN--\":27:28   */\n  dup1\n    /* \"--CODEGEN--\":20:32   */\n  revert\n    /* \"--CODEGEN--\":5:7   */\ntag_1:\n    /* \"MyToken/LionheadRabbit.sol\":4740:5705  contract myToken is StandardToken, Ownable {\r... */\n  pop\n  dataSize(sub_0)\n  dup1\n  dataOffset(sub_0)\n  0x0\n  codecopy\n  0x0\n  return\nstop\n\nsub_0: assembly {\n        /* \"MyToken/LionheadRabbit.sol\":4740:5705  contract myToken is StandardToken, Ownable {\r... */\n      mstore(0x40, 0x80)\n      jumpi(tag_1, lt(calldatasize, 0x4))\n      calldataload(0x0)\n      0x100000000000000000000000000000000000000000000000000000000\n      swap1\n      div\n      0xffffffff\n      and\n      dup1\n      0x95ea7b3\n      eq\n      tag_2\n      jumpi\n      dup1\n      0x18160ddd\n      eq\n      tag_3\n      jumpi\n      dup1\n      0x23b872dd\n      eq\n      tag_4\n      jumpi\n      dup1\n      0x66188463\n      eq\n      tag_5\n      jumpi\n      dup1\n      0x70a08231\n      eq\n      tag_6\n      jumpi\n      dup1\n      0x794be707\n      eq\n      tag_7\n      jumpi\n      dup1\n      0x8da5cb5b\n      eq\n      tag_8\n      jumpi\n      dup1\n      0xa9059cbb\n      eq\n      tag_9\n      jumpi\n      dup1\n      0xd73dd623\n      eq\n      tag_10\n      jumpi\n      dup1\n      0xdd62ed3e\n      eq\n      tag_11\n      jumpi\n      dup1\n      0xf2fde38b\n      eq\n      tag_12\n      jumpi\n    tag_1:\n      0x0\n      dup1\n      revert\n        /* \"MyToken/LionheadRabbit.sol\":5064:5188  function approve(address _spender, uint256 _value) public returns (bool) {\r... */\n    tag_2:\n      callvalue\n        /* \"--CODEGEN--\":8:17   */\n      dup1\n        /* \"--CODEGEN--\":5:7   */\n      iszero\n      tag_13\n      jumpi\n        /* \"--CODEGEN--\":30:31   */\n      0x0\n        /* \"--CODEGEN--\":27:28   */\n      dup1\n        /* \"--CODEGEN--\":20:32   */\n      revert\n        /* \"--CODEGEN--\":5:7   */\n    tag_13:\n        /* \"MyToken/LionheadRabbit.sol\":5064:5188  function approve(address _spender, uint256 _value) public returns (bool) {\r... */\n      pop\n      tag_14\n      0x4\n      dup1\n      calldatasize\n      sub\n      dup2\n      add\n      swap1\n      dup1\n      dup1\n      calldataload\n      0xffffffffffffffffffffffffffffffffffffffff\n      and\n      swap1\n      0x20\n      add\n      swap1\n      swap3\n      swap2\n      swap1\n      dup1\n      calldataload\n      swap1\n      0x20\n      add\n      swap1\n      swap3\n      swap2\n      swap1\n      pop\n      pop\n      pop\n      jump(tag_15)\n    tag_14:\n      mload(0x40)\n      dup1\n      dup3\n      iszero\n      iszero\n      iszero\n      iszero\n      dup2\n      mstore\n      0x20\n      add\n      swap2\n      pop\n      pop\n      mload(0x40)\n      dup1\n      swap2\n      sub\n      swap1\n      return\n        /* \"MyToken/LionheadRabbit.sol\":1473:1499  uint256 public totalSupply */\n    tag_3:\n      callvalue\n        /* \"--CODEGEN--\":8:17   */\n      dup1\n        /* \"--CODEGEN--\":5:7   */\n      iszero\n      tag_16\n      jumpi\n        /* \"--CODEGEN--\":30:31   */\n      0x0\n        /* \"--CODEGEN--\":27:28   */\n      dup1\n        /* \"--CODEGEN--\":20:32   */\n      revert\n        /* \"--CODEGEN--\":5:7   */\n    tag_16:\n        /* \"MyToken/LionheadRabbit.sol\":1473:1499  uint256 public totalSupply */\n      pop\n      tag_17\n      jump(tag_18)\n    tag_17:\n      mload(0x40)\n      dup1\n      dup3\n      dup2\n      mstore\n      0x20\n      add\n      swap2\n      pop\n      pop\n      mload(0x40)\n      dup1\n      swap2\n      sub\n      swap1\n      return\n        /* \"MyToken/LionheadRabbit.sol\":4912:5058  function transferFrom(address _from, address _to, uint256 _value) public returns (bool) {\r... */\n    tag_4:\n      callvalue\n        /* \"--CODEGEN--\":8:17   */\n      dup1\n        /* \"--CODEGEN--\":5:7   */\n      iszero\n      tag_19\n      jumpi\n        /* \"--CODEGEN--\":30:31   */\n      0x0\n        /* \"--CODEGEN--\":27:28   */\n      dup1\n        /* \"--CODEGEN--\":20:32   */\n      revert\n        /* \"--CODEGEN--\":5:7   */\n    tag_19:\n        /* \"MyToken/LionheadRabbit.sol\":4912:5058  function transferFrom(address _from, address _to, uint256 _value) public returns (bool) {\r... */\n      pop\n      tag_20\n      0x4\n      dup1\n      calldatasize\n      sub\n      dup2\n      add\n      swap1\n      dup1\n      dup1\n      calldataload\n      0xffffffffffffffffffffffffffffffffffffffff\n      and\n      swap1\n      0x20\n      add\n      swap1\n      swap3\n      swap2\n      swap1\n      dup1\n      calldataload\n      0xffffffffffffffffffffffffffffffffffffffff\n      and\n      swap1\n      0x20\n      add\n      swap1\n      swap3\n      swap2\n      swap1\n      dup1\n      calldataload\n      swap1\n      0x20\n      add\n      swap1\n      swap3\n      swap2\n      swap1\n      pop\n      pop\n      pop\n      jump(tag_21)\n    tag_20:\n      mload(0x40)\n      dup1\n      dup3\n      iszero\n      iszero\n      iszero\n      iszero\n      dup2\n      mstore\n      0x20\n      add\n      swap2\n      pop\n      pop\n      mload(0x40)\n      dup1\n      swap2\n      sub\n      swap1\n      return\n        /* \"MyToken/LionheadRabbit.sol\":5357:5524  function decreaseApproval(address _spender, uint _subtractedValue) public returns (bool success) {\r... */\n    tag_5:\n      callvalue\n        /* \"--CODEGEN--\":8:17   */\n      dup1\n        /* \"--CODEGEN--\":5:7   */\n      iszero\n      tag_22\n      jumpi\n        /* \"--CODEGEN--\":30:31   */\n      0x0\n        /* \"--CODEGEN--\":27:28   */\n      dup1\n        /* \"--CODEGEN--\":20:32   */\n      revert\n        /* \"--CODEGEN--\":5:7   */\n    tag_22:\n        /* \"MyToken/LionheadRabbit.sol\":5357:5524  function decreaseApproval(address _spender, uint _subtractedValue) public returns (bool success) {\r... */\n      pop\n      tag_23\n      0x4\n      dup1\n      calldatasize\n      sub\n      dup2\n      add\n      swap1\n      dup1\n      dup1\n      calldataload\n      0xffffffffffffffffffffffffffffffffffffffff\n      and\n      swap1\n      0x20\n      add\n      swap1\n      swap3\n      swap2\n      swap1\n      dup1\n      calldataload\n      swap1\n      0x20\n      add\n      swap1\n      swap3\n      swap2\n      swap1\n      pop\n      pop\n      pop\n      jump(tag_24)\n    tag_23:\n      mload(0x40)\n      dup1\n      dup3\n      iszero\n      iszero\n      iszero\n      iszero\n      dup2\n      mstore\n      0x20\n      add\n      swap2\n      pop\n      pop\n      mload(0x40)\n      dup1\n      swap2\n      sub\n      swap1\n      return\n        /* \"MyToken/LionheadRabbit.sol\":2829:2938  function balanceOf(address _owner) public view returns (uint256 balance) {\r... */\n    tag_6:\n      callvalue\n        /* \"--CODEGEN--\":8:17   */\n      dup1\n        /* \"--CODEGEN--\":5:7   */\n      iszero\n      tag_25\n      jumpi\n        /* \"--CODEGEN--\":30:31   */\n      0x0\n        /* \"--CODEGEN--\":27:28   */\n      dup1\n        /* \"--CODEGEN--\":20:32   */\n      revert\n        /* \"--CODEGEN--\":5:7   */\n    tag_25:\n        /* \"MyToken/LionheadRabbit.sol\":2829:2938  function balanceOf(address _owner) public view returns (uint256 balance) {\r... */\n      pop\n      tag_26\n      0x4\n      dup1\n      calldatasize\n      sub\n      dup2\n      add\n      swap1\n      dup1\n      dup1\n      calldataload\n      0xffffffffffffffffffffffffffffffffffffffff\n      and\n      swap1\n      0x20\n      add\n      swap1\n      swap3\n      swap2\n      swap1\n      pop\n      pop\n      pop\n      jump(tag_27)\n    tag_26:\n      mload(0x40)\n      dup1\n      dup3\n      dup2\n      mstore\n      0x20\n      add\n      swap2\n      pop\n      pop\n      mload(0x40)\n      dup1\n      swap2\n      sub\n      swap1\n      return\n        /* \"MyToken/LionheadRabbit.sol\":5532:5702  function blackListAddress(address listAddress,  bool isBlackListed) public onlyOwner  returns (bool success) {\r... */\n    tag_7:\n      callvalue\n        /* \"--CODEGEN--\":8:17   */\n      dup1\n        /* \"--CODEGEN--\":5:7   */\n      iszero\n      tag_28\n      jumpi\n        /* \"--CODEGEN--\":30:31   */\n      0x0\n        /* \"--CODEGEN--\":27:28   */\n      dup1\n        /* \"--CODEGEN--\":20:32   */\n      revert\n        /* \"--CODEGEN--\":5:7   */\n    tag_28:\n        /* \"MyToken/LionheadRabbit.sol\":5532:5702  function blackListAddress(address listAddress,  bool isBlackListed) public onlyOwner  returns (bool success) {\r... */\n      pop\n      tag_29\n      0x4\n      dup1\n      calldatasize\n      sub\n      dup2\n      add\n      swap1\n      dup1\n      dup1\n      calldataload\n      0xffffffffffffffffffffffffffffffffffffffff\n      and\n      swap1\n      0x20\n      add\n      swap1\n      swap3\n      swap2\n      swap1\n      dup1\n      calldataload\n      iszero\n      iszero\n      swap1\n      0x20\n      add\n      swap1\n      swap3\n      swap2\n      swap1\n      pop\n      pop\n      pop\n      jump(tag_30)\n    tag_29:\n      mload(0x40)\n      dup1\n      dup3\n      iszero\n      iszero\n      iszero\n      iszero\n      dup2\n      mstore\n      0x20\n      add\n      swap2\n      pop\n      pop\n      mload(0x40)\n      dup1\n      swap2\n      sub\n      swap1\n      return\n        /* \"MyToken/LionheadRabbit.sol\":828:848  address public owner */\n    tag_8:\n      callvalue\n        /* \"--CODEGEN--\":8:17   */\n      dup1\n        /* \"--CODEGEN--\":5:7   */\n      iszero\n      tag_31\n      jumpi\n        /* \"--CODEGEN--\":30:31   */\n      0x0\n        /* \"--CODEGEN--\":27:28   */\n      dup1\n        /* \"--CODEGEN--\":20:32   */\n      revert\n        /* \"--CODEGEN--\":5:7   */\n    tag_31:\n        /* \"MyToken/LionheadRabbit.sol\":828:848  address public owner */\n      pop\n      tag_32\n      jump(tag_33)\n    tag_32:\n      mload(0x40)\n      dup1\n      dup3\n      0xffffffffffffffffffffffffffffffffffffffff\n      and\n      0xffffffffffffffffffffffffffffffffffffffff\n      and\n      dup2\n      mstore\n      0x20\n      add\n      swap2\n      pop\n      pop\n      mload(0x40)\n      dup1\n      swap2\n      sub\n      swap1\n      return\n        /* \"MyToken/LionheadRabbit.sol\":4790:4906  function transfer(address _to, uint256 _value) public returns (bool) {\r... */\n    tag_9:\n      callvalue\n        /* \"--CODEGEN--\":8:17   */\n      dup1\n        /* \"--CODEGEN--\":5:7   */\n      iszero\n      tag_34\n      jumpi\n        /* \"--CODEGEN--\":30:31   */\n      0x0\n        /* \"--CODEGEN--\":27:28   */\n      dup1\n        /* \"--CODEGEN--\":20:32   */\n      revert\n        /* \"--CODEGEN--\":5:7   */\n    tag_34:\n        /* \"MyToken/LionheadRabbit.sol\":4790:4906  function transfer(address _to, uint256 _value) public returns (bool) {\r... */\n      pop\n      tag_35\n      0x4\n      dup1\n      calldatasize\n      sub\n      dup2\n      add\n      swap1\n      dup1\n      dup1\n      calldataload\n      0xffffffffffffffffffffffffffffffffffffffff\n      and\n      swap1\n      0x20\n      add\n      swap1\n      swap3\n      swap2\n      swap1\n      dup1\n      calldataload\n      swap1\n      0x20\n      add\n      swap1\n      swap3\n      swap2\n      swap1\n      pop\n      pop\n      pop\n      jump(tag_36)\n    tag_35:\n      mload(0x40)\n      dup1\n      dup3\n      iszero\n      iszero\n      iszero\n      iszero\n      dup2\n      mstore\n      0x20\n      add\n      swap2\n      pop\n      pop\n      mload(0x40)\n      dup1\n      swap2\n      sub\n      swap1\n      return\n        /* \"MyToken/LionheadRabbit.sol\":5194:5351  function increaseApproval(address _spender, uint _addedValue) public returns (bool success) {\r... */\n    tag_10:\n      callvalue\n        /* \"--CODEGEN--\":8:17   */\n      dup1\n        /* \"--CODEGEN--\":5:7   */\n      iszero\n      tag_37\n      jumpi\n        /* \"--CODEGEN--\":30:31   */\n      0x0\n        /* \"--CODEGEN--\":27:28   */\n      dup1\n        /* \"--CODEGEN--\":20:32   */\n      revert\n        /* \"--CODEGEN--\":5:7   */\n    tag_37:\n        /* \"MyToken/LionheadRabbit.sol\":5194:5351  function increaseApproval(address _spender, uint _addedValue) public returns (bool success) {\r... */\n      pop\n      tag_38\n      0x4\n      dup1\n      calldatasize\n      sub\n      dup2\n      add\n      swap1\n      dup1\n      dup1\n      calldataload\n      0xffffffffffffffffffffffffffffffffffffffff\n      and\n      swap1\n      0x20\n      add\n      swap1\n      swap3\n      swap2\n      swap1\n      dup1\n      calldataload\n      swap1\n      0x20\n      add\n      swap1\n      swap3\n      swap2\n      swap1\n      pop\n      pop\n      pop\n      jump(tag_39)\n    tag_38:\n      mload(0x40)\n      dup1\n      dup3\n      iszero\n      iszero\n      iszero\n      iszero\n      dup2\n      mstore\n      0x20\n      add\n      swap2\n      pop\n      pop\n      mload(0x40)\n      dup1\n      swap2\n      sub\n      swap1\n      return\n        /* \"MyToken/LionheadRabbit.sol\":3657:3785  function allowance(address _owner, address _spender) public view returns (uint256) {\r... */\n    tag_11:\n      callvalue\n        /* \"--CODEGEN--\":8:17   */\n      dup1\n        /* \"--CODEGEN--\":5:7   */\n      iszero\n      tag_40\n      jumpi\n        /* \"--CODEGEN--\":30:31   */\n      0x0\n        /* \"--CODEGEN--\":27:28   */\n      dup1\n        /* \"--CODEGEN--\":20:32   */\n      revert\n        /* \"--CODEGEN--\":5:7   */\n    tag_40:\n        /* \"MyToken/LionheadRabbit.sol\":3657:3785  function allowance(address _owner, address _spender) public view returns (uint256) {\r... */\n      pop\n      tag_41\n      0x4\n      dup1\n      calldatasize\n      sub\n      dup2\n      add\n      swap1\n      dup1\n      dup1\n      calldataload\n      0xffffffffffffffffffffffffffffffffffffffff\n      and\n      swap1\n      0x20\n      add\n      swap1\n      swap3\n      swap2\n      swap1\n      dup1\n      calldataload\n      0xffffffffffffffffffffffffffffffffffffffff\n      and\n      swap1\n      0x20\n      add\n      swap1\n      swap3\n      swap2\n      swap1\n      pop\n      pop\n      pop\n      jump(tag_42)\n    tag_41:\n      mload(0x40)\n      dup1\n      dup3\n      dup2\n      mstore\n      0x20\n      add\n      swap2\n      pop\n      pop\n      mload(0x40)\n      dup1\n      swap2\n      sub\n      swap1\n      return\n        /* \"MyToken/LionheadRabbit.sol\":1261:1439  function transferOwnership(address newOwner) public onlyOwner {\r... */\n    tag_12:\n      callvalue\n        /* \"--CODEGEN--\":8:17   */\n      dup1\n        /* \"--CODEGEN--\":5:7   */\n      iszero\n      tag_43\n      jumpi\n        /* \"--CODEGEN--\":30:31   */\n      0x0\n        /* \"--CODEGEN--\":27:28   */\n      dup1\n        /* \"--CODEGEN--\":20:32   */\n      revert\n        /* \"--CODEGEN--\":5:7   */\n    tag_43:\n        /* \"MyToken/LionheadRabbit.sol\":1261:1439  function transferOwnership(address newOwner) public onlyOwner {\r... */\n      pop\n      tag_44\n      0x4\n      dup1\n      calldatasize\n      sub\n      dup2\n      add\n      swap1\n      dup1\n      dup1\n      calldataload\n      0xffffffffffffffffffffffffffffffffffffffff\n      and\n      swap1\n      0x20\n      add\n      swap1\n      swap3\n      swap2\n      swap1\n      pop\n      pop\n      pop\n      jump(tag_45)\n    tag_44:\n      stop\n        /* \"MyToken/LionheadRabbit.sol\":5064:5188  function approve(address _spender, uint256 _value) public returns (bool) {\r... */\n    tag_15:\n        /* \"MyToken/LionheadRabbit.sol\":5131:5135  bool */\n      0x0\n        /* \"MyToken/LionheadRabbit.sol\":5151:5182  super.approve(_spender, _value) */\n      tag_47\n        /* \"MyToken/LionheadRabbit.sol\":5165:5173  _spender */\n      dup4\n        /* \"MyToken/LionheadRabbit.sol\":5175:5181  _value */\n      dup4\n        /* \"MyToken/LionheadRabbit.sol\":5151:5164  super.approve */\n      tag_48\n        /* \"MyToken/LionheadRabbit.sol\":5151:5182  super.approve(_spender, _value) */\n      jump\t// in\n    tag_47:\n        /* \"MyToken/LionheadRabbit.sol\":5144:5182  return super.approve(_spender, _value) */\n      swap1\n      pop\n        /* \"MyToken/LionheadRabbit.sol\":5064:5188  function approve(address _spender, uint256 _value) public returns (bool) {\r... */\n      swap3\n      swap2\n      pop\n      pop\n      jump\t// out\n        /* \"MyToken/LionheadRabbit.sol\":1473:1499  uint256 public totalSupply */\n    tag_18:\n      sload(0x0)\n      dup2\n      jump\t// out\n        /* \"MyToken/LionheadRabbit.sol\":4912:5058  function transferFrom(address _from, address _to, uint256 _value) public returns (bool) {\r... */\n    tag_21:\n        /* \"MyToken/LionheadRabbit.sol\":4994:4998  bool */\n      0x0\n        /* \"MyToken/LionheadRabbit.sol\":5014:5052  super.transferFrom(_from, _to, _value) */\n      tag_50\n        /* \"MyToken/LionheadRabbit.sol\":5033:5038  _from */\n      dup5\n        /* \"MyToken/LionheadRabbit.sol\":5040:5043  _to */\n      dup5\n        /* \"MyToken/LionheadRabbit.sol\":5045:5051  _value */\n      dup5\n        /* \"MyToken/LionheadRabbit.sol\":5014:5032  super.transferFrom */\n      tag_51\n        /* \"MyToken/LionheadRabbit.sol\":5014:5052  super.transferFrom(_from, _to, _value) */\n      jump\t// in\n    tag_50:\n        /* \"MyToken/LionheadRabbit.sol\":5007:5052  return super.transferFrom(_from, _to, _value) */\n      swap1\n      pop\n        /* \"MyToken/LionheadRabbit.sol\":4912:5058  function transferFrom(address _from, address _to, uint256 _value) public returns (bool) {\r... */\n      swap4\n      swap3\n      pop\n      pop\n      pop\n      jump\t// out\n        /* \"MyToken/LionheadRabbit.sol\":5357:5524  function decreaseApproval(address _spender, uint _subtractedValue) public returns (bool success) {\r... */\n    tag_24:\n        /* \"MyToken/LionheadRabbit.sol\":5440:5452  bool success */\n      0x0\n        /* \"MyToken/LionheadRabbit.sol\":5468:5518  super.decreaseApproval(_spender, _subtractedValue) */\n      tag_53\n        /* \"MyToken/LionheadRabbit.sol\":5491:5499  _spender */\n      dup4\n        /* \"MyToken/LionheadRabbit.sol\":5501:5517  _subtractedValue */\n      dup4\n        /* \"MyToken/LionheadRabbit.sol\":5468:5490  super.decreaseApproval */\n      tag_54\n        /* \"MyToken/LionheadRabbit.sol\":5468:5518  super.decreaseApproval(_spender, _subtractedValue) */\n      jump\t// in\n    tag_53:\n        /* \"MyToken/LionheadRabbit.sol\":5461:5518  return super.decreaseApproval(_spender, _subtractedValue) */\n      swap1\n      pop\n        /* \"MyToken/LionheadRabbit.sol\":5357:5524  function decreaseApproval(address _spender, uint _subtractedValue) public returns (bool success) {\r... */\n      swap3\n      swap2\n      pop\n      pop\n      jump\t// out\n        /* \"MyToken/LionheadRabbit.sol\":2829:2938  function balanceOf(address _owner) public view returns (uint256 balance) {\r... */\n    tag_27:\n        /* \"MyToken/LionheadRabbit.sol\":2885:2900  uint256 balance */\n      0x0\n        /* \"MyToken/LionheadRabbit.sol\":2916:2924  balances */\n      0x3\n        /* \"MyToken/LionheadRabbit.sol\":2916:2932  balances[_owner] */\n      0x0\n        /* \"MyToken/LionheadRabbit.sol\":2925:2931  _owner */\n      dup4\n        /* \"MyToken/LionheadRabbit.sol\":2916:2932  balances[_owner] */\n      0xffffffffffffffffffffffffffffffffffffffff\n      and\n      0xffffffffffffffffffffffffffffffffffffffff\n      and\n      dup2\n      mstore\n      0x20\n      add\n      swap1\n      dup2\n      mstore\n      0x20\n      add\n      0x0\n      keccak256\n      sload\n        /* \"MyToken/LionheadRabbit.sol\":2909:2932  return balances[_owner] */\n      swap1\n      pop\n        /* \"MyToken/LionheadRabbit.sol\":2829:2938  function balanceOf(address _owner) public view returns (uint256 balance) {\r... */\n      swap2\n      swap1\n      pop\n      jump\t// out\n        /* \"MyToken/LionheadRabbit.sol\":5532:5702  function blackListAddress(address listAddress,  bool isBlackListed) public onlyOwner  returns (bool success) {\r... */\n    tag_30:\n        /* \"MyToken/LionheadRabbit.sol\":5627:5639  bool success */\n      0x0\n        /* \"MyToken/LionheadRabbit.sol\":1074:1079  owner */\n      0x4\n      0x0\n      swap1\n      sload\n      swap1\n      0x100\n      exp\n      swap1\n      div\n      0xffffffffffffffffffffffffffffffffffffffff\n      and\n        /* \"MyToken/LionheadRabbit.sol\":1060:1079  msg.sender == owner */\n      0xffffffffffffffffffffffffffffffffffffffff\n      and\n        /* \"MyToken/LionheadRabbit.sol\":1060:1070  msg.sender */\n      caller\n        /* \"MyToken/LionheadRabbit.sol\":1060:1079  msg.sender == owner */\n      0xffffffffffffffffffffffffffffffffffffffff\n      and\n      eq\n        /* \"MyToken/LionheadRabbit.sol\":1052:1080  require(msg.sender == owner) */\n      iszero\n      iszero\n      tag_57\n      jumpi\n      0x0\n      dup1\n      revert\n    tag_57:\n        /* \"MyToken/LionheadRabbit.sol\":5652:5696  super._blackList(listAddress, isBlackListed) */\n      tag_59\n        /* \"MyToken/LionheadRabbit.sol\":5669:5680  listAddress */\n      dup4\n        /* \"MyToken/LionheadRabbit.sol\":5682:5695  isBlackListed */\n      dup4\n        /* \"MyToken/LionheadRabbit.sol\":5652:5668  super._blackList */\n      tag_60\n        /* \"MyToken/LionheadRabbit.sol\":5652:5696  super._blackList(listAddress, isBlackListed) */\n      jump\t// in\n    tag_59:\n        /* \"MyToken/LionheadRabbit.sol\":5645:5696  return super._blackList(listAddress, isBlackListed) */\n      swap1\n      pop\n        /* \"MyToken/LionheadRabbit.sol\":5532:5702  function blackListAddress(address listAddress,  bool isBlackListed) public onlyOwner  returns (bool success) {\r... */\n      swap3\n      swap2\n      pop\n      pop\n      jump\t// out\n        /* \"MyToken/LionheadRabbit.sol\":828:848  address public owner */\n    tag_33:\n      0x4\n      0x0\n      swap1\n      sload\n      swap1\n      0x100\n      exp\n      swap1\n      div\n      0xffffffffffffffffffffffffffffffffffffffff\n      and\n      dup2\n      jump\t// out\n        /* \"MyToken/LionheadRabbit.sol\":4790:4906  function transfer(address _to, uint256 _value) public returns (bool) {\r... */\n    tag_36:\n        /* \"MyToken/LionheadRabbit.sol\":4853:4857  bool */\n      0x0\n        /* \"MyToken/LionheadRabbit.sol\":4873:4900  super.transfer(_to, _value) */\n      tag_62\n        /* \"MyToken/LionheadRabbit.sol\":4888:4891  _to */\n      dup4\n        /* \"MyToken/LionheadRabbit.sol\":4893:4899  _value */\n      dup4\n        /* \"MyToken/LionheadRabbit.sol\":4873:4887  super.transfer */\n      tag_63\n        /* \"MyToken/LionheadRabbit.sol\":4873:4900  super.transfer(_to, _value) */\n      jump\t// in\n    tag_62:\n        /* \"MyToken/LionheadRabbit.sol\":4866:4900  return super.transfer(_to, _value) */\n      swap1\n      pop\n        /* \"MyToken/LionheadRabbit.sol\":4790:4906  function transfer(address _to, uint256 _value) public returns (bool) {\r... */\n      swap3\n      swap2\n      pop\n      pop\n      jump\t// out\n        /* \"MyToken/LionheadRabbit.sol\":5194:5351  function increaseApproval(address _spender, uint _addedValue) public returns (bool success) {\r... */\n    tag_39:\n        /* \"MyToken/LionheadRabbit.sol\":5272:5284  bool success */\n      0x0\n        /* \"MyToken/LionheadRabbit.sol\":5300:5345  super.increaseApproval(_spender, _addedValue) */\n      tag_65\n        /* \"MyToken/LionheadRabbit.sol\":5323:5331  _spender */\n      dup4\n        /* \"MyToken/LionheadRabbit.sol\":5333:5344  _addedValue */\n      dup4\n        /* \"MyToken/LionheadRabbit.sol\":5300:5322  super.increaseApproval */\n      tag_66\n        /* \"MyToken/LionheadRabbit.sol\":5300:5345  super.increaseApproval(_spender, _addedValue) */\n      jump\t// in\n    tag_65:\n        /* \"MyToken/LionheadRabbit.sol\":5293:5345  return super.increaseApproval(_spender, _addedValue) */\n      swap1\n      pop\n        /* \"MyToken/LionheadRabbit.sol\":5194:5351  function increaseApproval(address _spender, uint _addedValue) public returns (bool success) {\r... */\n      swap3\n      swap2\n      pop\n      pop\n      jump\t// out\n        /* \"MyToken/LionheadRabbit.sol\":3657:3785  function allowance(address _owner, address _spender) public view returns (uint256) {\r... */\n    tag_42:\n        /* \"MyToken/LionheadRabbit.sol\":3731:3738  uint256 */\n      0x0\n        /* \"MyToken/LionheadRabbit.sol\":3754:3761  allowed */\n      0x1\n        /* \"MyToken/LionheadRabbit.sol\":3754:3769  allowed[_owner] */\n      0x0\n        /* \"MyToken/LionheadRabbit.sol\":3762:3768  _owner */\n      dup5\n        /* \"MyToken/LionheadRabbit.sol\":3754:3769  allowed[_owner] */\n      0xffffffffffffffffffffffffffffffffffffffff\n      and\n      0xffffffffffffffffffffffffffffffffffffffff\n      and\n      dup2\n      mstore\n      0x20\n      add\n      swap1\n      dup2\n      mstore\n      0x20\n      add\n      0x0\n      keccak256\n        /* \"MyToken/LionheadRabbit.sol\":3754:3779  allowed[_owner][_spender] */\n      0x0\n        /* \"MyToken/LionheadRabbit.sol\":3770:3778  _spender */\n      dup4\n        /* \"MyToken/LionheadRabbit.sol\":3754:3779  allowed[_owner][_spender] */\n      0xffffffffffffffffffffffffffffffffffffffff\n      and\n      0xffffffffffffffffffffffffffffffffffffffff\n      and\n      dup2\n      mstore\n      0x20\n      add\n      swap1\n      dup2\n      mstore\n      0x20\n      add\n      0x0\n      keccak256\n      sload\n        /* \"MyToken/LionheadRabbit.sol\":3747:3779  return allowed[_owner][_spender] */\n      swap1\n      pop\n        /* \"MyToken/LionheadRabbit.sol\":3657:3785  function allowance(address _owner, address _spender) public view returns (uint256) {\r... */\n      swap3\n      swap2\n      pop\n      pop\n      jump\t// out\n        /* \"MyToken/LionheadRabbit.sol\":1261:1439  function transferOwnership(address newOwner) public onlyOwner {\r... */\n    tag_45:\n        /* \"MyToken/LionheadRabbit.sol\":1074:1079  owner */\n      0x4\n      0x0\n      swap1\n      sload\n      swap1\n      0x100\n      exp\n      swap1\n      div\n      0xffffffffffffffffffffffffffffffffffffffff\n      and\n        /* \"MyToken/LionheadRabbit.sol\":1060:1079  msg.sender == owner */\n      0xffffffffffffffffffffffffffffffffffffffff\n      and\n        /* \"MyToken/LionheadRabbit.sol\":1060:1070  msg.sender */\n      caller\n        /* \"MyToken/LionheadRabbit.sol\":1060:1079  msg.sender == owner */\n      0xffffffffffffffffffffffffffffffffffffffff\n      and\n      eq\n        /* \"MyToken/LionheadRabbit.sol\":1052:1080  require(msg.sender == owner) */\n      iszero\n      iszero\n      tag_69\n      jumpi\n      0x0\n      dup1\n      revert\n    tag_69:\n        /* \"MyToken/LionheadRabbit.sol\":1358:1359  0 */\n      0x0\n        /* \"MyToken/LionheadRabbit.sol\":1338:1360  newOwner != address(0) */\n      0xffffffffffffffffffffffffffffffffffffffff\n      and\n        /* \"MyToken/LionheadRabbit.sol\":1338:1346  newOwner */\n      dup2\n        /* \"MyToken/LionheadRabbit.sol\":1338:1360  newOwner != address(0) */\n      0xffffffffffffffffffffffffffffffffffffffff\n      and\n      eq\n      iszero\n        /* \"MyToken/LionheadRabbit.sol\":1330:1361  require(newOwner != address(0)) */\n      iszero\n      iszero\n      tag_71\n      jumpi\n      0x0\n      dup1\n      revert\n    tag_71:\n        /* \"MyToken/LionheadRabbit.sol\":1401:1409  newOwner */\n      dup1\n        /* \"MyToken/LionheadRabbit.sol\":1373:1410  OwnershipTransferred(owner, newOwner) */\n      0xffffffffffffffffffffffffffffffffffffffff\n      and\n        /* \"MyToken/LionheadRabbit.sol\":1394:1399  owner */\n      0x4\n      0x0\n      swap1\n      sload\n      swap1\n      0x100\n      exp\n      swap1\n      div\n      0xffffffffffffffffffffffffffffffffffffffff\n      and\n        /* \"MyToken/LionheadRabbit.sol\":1373:1410  OwnershipTransferred(owner, newOwner) */\n      0xffffffffffffffffffffffffffffffffffffffff\n      and\n      0x8be0079c531659141344cd1fd0a4f28419497f9722a3daafe3b4186f6b6457e0\n      mload(0x40)\n      mload(0x40)\n      dup1\n      swap2\n      sub\n      swap1\n      log3\n        /* \"MyToken/LionheadRabbit.sol\":1425:1433  newOwner */\n      dup1\n        /* \"MyToken/LionheadRabbit.sol\":1417:1422  owner */\n      0x4\n      0x0\n        /* \"MyToken/LionheadRabbit.sol\":1417:1433  owner = newOwner */\n      0x100\n      exp\n      dup2\n      sload\n      dup2\n      0xffffffffffffffffffffffffffffffffffffffff\n      mul\n      not\n      and\n      swap1\n      dup4\n      0xffffffffffffffffffffffffffffffffffffffff\n      and\n      mul\n      or\n      swap1\n      sstore\n      pop\n        /* \"MyToken/LionheadRabbit.sol\":1261:1439  function transferOwnership(address newOwner) public onlyOwner {\r... */\n      pop\n      jump\t// out\n        /* \"MyToken/LionheadRabbit.sol\":3457:3649  function approve(address _spender, uint256 _value) public returns (bool) {\r... */\n    tag_48:\n        /* \"MyToken/LionheadRabbit.sol\":3524:3528  bool */\n      0x0\n        /* \"MyToken/LionheadRabbit.sol\":3569:3575  _value */\n      dup2\n        /* \"MyToken/LionheadRabbit.sol\":3537:3544  allowed */\n      0x1\n        /* \"MyToken/LionheadRabbit.sol\":3537:3556  allowed[msg.sender] */\n      0x0\n        /* \"MyToken/LionheadRabbit.sol\":3545:3555  msg.sender */\n      caller\n        /* \"MyToken/LionheadRabbit.sol\":3537:3556  allowed[msg.sender] */\n      0xffffffffffffffffffffffffffffffffffffffff\n      and\n      0xffffffffffffffffffffffffffffffffffffffff\n      and\n      dup2\n      mstore\n      0x20\n      add\n      swap1\n      dup2\n      mstore\n      0x20\n      add\n      0x0\n      keccak256\n        /* \"MyToken/LionheadRabbit.sol\":3537:3566  allowed[msg.sender][_spender] */\n      0x0\n        /* \"MyToken/LionheadRabbit.sol\":3557:3565  _spender */\n      dup6\n        /* \"MyToken/LionheadRabbit.sol\":3537:3566  allowed[msg.sender][_spender] */\n      0xffffffffffffffffffffffffffffffffffffffff\n      and\n      0xffffffffffffffffffffffffffffffffffffffff\n      and\n      dup2\n      mstore\n      0x20\n      add\n      swap1\n      dup2\n      mstore\n      0x20\n      add\n      0x0\n      keccak256\n        /* \"MyToken/LionheadRabbit.sol\":3537:3575  allowed[msg.sender][_spender] = _value */\n      dup2\n      swap1\n      sstore\n      pop\n        /* \"MyToken/LionheadRabbit.sol\":3608:3616  _spender */\n      dup3\n        /* \"MyToken/LionheadRabbit.sol\":3587:3625  Approval(msg.sender, _spender, _value) */\n      0xffffffffffffffffffffffffffffffffffffffff\n      and\n        /* \"MyToken/LionheadRabbit.sol\":3596:3606  msg.sender */\n      caller\n        /* \"MyToken/LionheadRabbit.sol\":3587:3625  Approval(msg.sender, _spender, _value) */\n      0xffffffffffffffffffffffffffffffffffffffff\n      and\n      0x8c5be1e5ebec7d5bd14f71427d1e84f3dd0314c0f7b2291e5b200ac8c7c3b925\n        /* \"MyToken/LionheadRabbit.sol\":3618:3624  _value */\n      dup5\n        /* \"MyToken/LionheadRabbit.sol\":3587:3625  Approval(msg.sender, _spender, _value) */\n      mload(0x40)\n      dup1\n      dup3\n      dup2\n      mstore\n      0x20\n      add\n      swap2\n      pop\n      pop\n      mload(0x40)\n      dup1\n      swap2\n      sub\n      swap1\n      log3\n        /* \"MyToken/LionheadRabbit.sol\":3639:3643  true */\n      0x1\n        /* \"MyToken/LionheadRabbit.sol\":3632:3643  return true */\n      swap1\n      pop\n        /* \"MyToken/LionheadRabbit.sol\":3457:3649  function approve(address _spender, uint256 _value) public returns (bool) {\r... */\n      swap3\n      swap2\n      pop\n      pop\n      jump\t// out\n        /* \"MyToken/LionheadRabbit.sol\":2944:3449  function transferFrom(address _from, address _to, uint256 _value) public returns (bool) {\r... */\n    tag_51:\n        /* \"MyToken/LionheadRabbit.sol\":3026:3030  bool */\n      0x0\n        /* \"MyToken/LionheadRabbit.sol\":3077:3082  false */\n      dup1\n        /* \"MyToken/LionheadRabbit.sol\":3047:3082  tokenBlacklist[msg.sender] == false */\n      iszero\n      iszero\n        /* \"MyToken/LionheadRabbit.sol\":3047:3061  tokenBlacklist */\n      0x2\n        /* \"MyToken/LionheadRabbit.sol\":3047:3073  tokenBlacklist[msg.sender] */\n      0x0\n        /* \"MyToken/LionheadRabbit.sol\":3062:3072  msg.sender */\n      caller\n        /* \"MyToken/LionheadRabbit.sol\":3047:3073  tokenBlacklist[msg.sender] */\n      0xffffffffffffffffffffffffffffffffffffffff\n      and\n      0xffffffffffffffffffffffffffffffffffffffff\n      and\n      dup2\n      mstore\n      0x20\n      add\n      swap1\n      dup2\n      mstore\n      0x20\n      add\n      0x0\n      keccak256\n      0x0\n      swap1\n      sload\n      swap1\n      0x100\n      exp\n      swap1\n      div\n      0xff\n      and\n        /* \"MyToken/LionheadRabbit.sol\":3047:3082  tokenBlacklist[msg.sender] == false */\n      iszero\n      iszero\n      eq\n        /* \"MyToken/LionheadRabbit.sol\":3039:3083  require(tokenBlacklist[msg.sender] == false) */\n      iszero\n      iszero\n      tag_74\n      jumpi\n      0x0\n      dup1\n      revert\n    tag_74:\n        /* \"MyToken/LionheadRabbit.sol\":3113:3114  0 */\n      0x0\n        /* \"MyToken/LionheadRabbit.sol\":3098:3115  _to != address(0) */\n      0xffffffffffffffffffffffffffffffffffffffff\n      and\n        /* \"MyToken/LionheadRabbit.sol\":3098:3101  _to */\n      dup4\n        /* \"MyToken/LionheadRabbit.sol\":3098:3115  _to != address(0) */\n      0xffffffffffffffffffffffffffffffffffffffff\n      and\n      eq\n      iszero\n        /* \"MyToken/LionheadRabbit.sol\":3090:3116  require(_to != address(0)) */\n      iszero\n      iszero\n      tag_75\n      jumpi\n      0x0\n      dup1\n      revert\n    tag_75:\n        /* \"MyToken/LionheadRabbit.sol\":3141:3149  balances */\n      0x3\n        /* \"MyToken/LionheadRabbit.sol\":3141:3156  balances[_from] */\n      0x0\n        /* \"MyToken/LionheadRabbit.sol\":3150:3155  _from */\n      dup6\n        /* \"MyToken/LionheadRabbit.sol\":3141:3156  balances[_from] */\n      0xffffffffffffffffffffffffffffffffffffffff\n      and\n      0xffffffffffffffffffffffffffffffffffffffff\n      and\n      dup2\n      mstore\n      0x20\n      add\n      swap1\n      dup2\n      mstore\n      0x20\n      add\n      0x0\n      keccak256\n      sload\n        /* \"MyToken/LionheadRabbit.sol\":3131:3137  _value */\n      dup3\n        /* \"MyToken/LionheadRabbit.sol\":3131:3156  _value <= balances[_from] */\n      gt\n      iszero\n        /* \"MyToken/LionheadRabbit.sol\":3123:3157  require(_value <= balances[_from]) */\n      iszero\n      iszero\n      tag_76\n      jumpi\n      0x0\n      dup1\n      revert\n    tag_76:\n        /* \"MyToken/LionheadRabbit.sol\":3182:3189  allowed */\n      0x1\n        /* \"MyToken/LionheadRabbit.sol\":3182:3196  allowed[_from] */\n      0x0\n        /* \"MyToken/LionheadRabbit.sol\":3190:3195  _from */\n      dup6\n        /* \"MyToken/LionheadRabbit.sol\":3182:3196  allowed[_from] */\n      0xffffffffffffffffffffffffffffffffffffffff\n      and\n      0xffffffffffffffffffffffffffffffffffffffff\n      and\n      dup2\n      mstore\n      0x20\n      add\n      swap1\n      dup2\n      mstore\n      0x20\n      add\n      0x0\n      keccak256\n        /* \"MyToken/LionheadRabbit.sol\":3182:3208  allowed[_from][msg.sender] */\n      0x0\n        /* \"MyToken/LionheadRabbit.sol\":3197:3207  msg.sender */\n      caller\n        /* \"MyToken/LionheadRabbit.sol\":3182:3208  allowed[_from][msg.sender] */\n      0xffffffffffffffffffffffffffffffffffffffff\n      and\n      0xffffffffffffffffffffffffffffffffffffffff\n      and\n      dup2\n      mstore\n      0x20\n      add\n      swap1\n      dup2\n      mstore\n      0x20\n      add\n      0x0\n      keccak256\n      sload\n        /* \"MyToken/LionheadRabbit.sol\":3172:3178  _value */\n      dup3\n        /* \"MyToken/LionheadRabbit.sol\":3172:3208  _value <= allowed[_from][msg.sender] */\n      gt\n      iszero\n        /* \"MyToken/LionheadRabbit.sol\":3164:3209  require(_value <= allowed[_from][msg.sender]) */\n      iszero\n      iszero\n      tag_77\n      jumpi\n      0x0\n      dup1\n      revert\n    tag_77:\n        /* \"MyToken/LionheadRabbit.sol\":3236:3263  balances[_from].sub(_value) */\n      tag_78\n        /* \"MyToken/LionheadRabbit.sol\":3256:3262  _value */\n      dup3\n        /* \"MyToken/LionheadRabbit.sol\":3236:3244  balances */\n      0x3\n        /* \"MyToken/LionheadRabbit.sol\":3236:3251  balances[_from] */\n      0x0\n        /* \"MyToken/LionheadRabbit.sol\":3245:3250  _from */\n      dup8\n        /* \"MyToken/LionheadRabbit.sol\":3236:3251  balances[_from] */\n      0xffffffffffffffffffffffffffffffffffffffff\n      and\n      0xffffffffffffffffffffffffffffffffffffffff\n      and\n      dup2\n      mstore\n      0x20\n      add\n      swap1\n      dup2\n      mstore\n      0x20\n      add\n      0x0\n      keccak256\n      sload\n        /* \"MyToken/LionheadRabbit.sol\":3236:3255  balances[_from].sub */\n      tag_79\n      swap1\n        /* \"MyToken/LionheadRabbit.sol\":3236:3263  balances[_from].sub(_value) */\n      swap2\n      swap1\n      0xffffffff\n      and\n      jump\t// in\n    tag_78:\n        /* \"MyToken/LionheadRabbit.sol\":3218:3226  balances */\n      0x3\n        /* \"MyToken/LionheadRabbit.sol\":3218:3233  balances[_from] */\n      0x0\n        /* \"MyToken/LionheadRabbit.sol\":3227:3232  _from */\n      dup7\n        /* \"MyToken/LionheadRabbit.sol\":3218:3233  balances[_from] */\n      0xffffffffffffffffffffffffffffffffffffffff\n      and\n      0xffffffffffffffffffffffffffffffffffffffff\n      and\n      dup2\n      mstore\n      0x20\n      add\n      swap1\n      dup2\n      mstore\n      0x20\n      add\n      0x0\n      keccak256\n        /* \"MyToken/LionheadRabbit.sol\":3218:3263  balances[_from] = balances[_from].sub(_value) */\n      dup2\n      swap1\n      sstore\n      pop\n        /* \"MyToken/LionheadRabbit.sol\":3286:3311  balances[_to].add(_value) */\n      tag_80\n        /* \"MyToken/LionheadRabbit.sol\":3304:3310  _value */\n      dup3\n        /* \"MyToken/LionheadRabbit.sol\":3286:3294  balances */\n      0x3\n        /* \"MyToken/LionheadRabbit.sol\":3286:3299  balances[_to] */\n      0x0\n        /* \"MyToken/LionheadRabbit.sol\":3295:3298  _to */\n      dup7\n        /* \"MyToken/LionheadRabbit.sol\":3286:3299  balances[_to] */\n      0xffffffffffffffffffffffffffffffffffffffff\n      and\n      0xffffffffffffffffffffffffffffffffffffffff\n      and\n      dup2\n      mstore\n      0x20\n      add\n      swap1\n      dup2\n      mstore\n      0x20\n      add\n      0x0\n      keccak256\n      sload\n        /* \"MyToken/LionheadRabbit.sol\":3286:3303  balances[_to].add */\n      tag_81\n      swap1\n        /* \"MyToken/LionheadRabbit.sol\":3286:3311  balances[_to].add(_value) */\n      swap2\n      swap1\n      0xffffffff\n      and\n      jump\t// in\n    tag_80:\n        /* \"MyToken/LionheadRabbit.sol\":3270:3278  balances */\n      0x3\n        /* \"MyToken/LionheadRabbit.sol\":3270:3283  balances[_to] */\n      0x0\n        /* \"MyToken/LionheadRabbit.sol\":3279:3282  _to */\n      dup6\n        /* \"MyToken/LionheadRabbit.sol\":3270:3283  balances[_to] */\n      0xffffffffffffffffffffffffffffffffffffffff\n      and\n      0xffffffffffffffffffffffffffffffffffffffff\n      and\n      dup2\n      mstore\n      0x20\n      add\n      swap1\n      dup2\n      mstore\n      0x20\n      add\n      0x0\n      keccak256\n        /* \"MyToken/LionheadRabbit.sol\":3270:3311  balances[_to] = balances[_to].add(_value) */\n      dup2\n      swap1\n      sstore\n      pop\n        /* \"MyToken/LionheadRabbit.sol\":3347:3385  allowed[_from][msg.sender].sub(_value) */\n      tag_82\n        /* \"MyToken/LionheadRabbit.sol\":3378:3384  _value */\n      dup3\n        /* \"MyToken/LionheadRabbit.sol\":3347:3354  allowed */\n      0x1\n        /* \"MyToken/LionheadRabbit.sol\":3347:3361  allowed[_from] */\n      0x0\n        /* \"MyToken/LionheadRabbit.sol\":3355:3360  _from */\n      dup8\n        /* \"MyToken/LionheadRabbit.sol\":3347:3361  allowed[_from] */\n      0xffffffffffffffffffffffffffffffffffffffff\n      and\n      0xffffffffffffffffffffffffffffffffffffffff\n      and\n      dup2\n      mstore\n      0x20\n      add\n      swap1\n      dup2\n      mstore\n      0x20\n      add\n      0x0\n      keccak256\n        /* \"MyToken/LionheadRabbit.sol\":3347:3373  allowed[_from][msg.sender] */\n      0x0\n        /* \"MyToken/LionheadRabbit.sol\":3362:3372  msg.sender */\n      caller\n        /* \"MyToken/LionheadRabbit.sol\":3347:3373  allowed[_from][msg.sender] */\n      0xffffffffffffffffffffffffffffffffffffffff\n      and\n      0xffffffffffffffffffffffffffffffffffffffff\n      and\n      dup2\n      mstore\n      0x20\n      add\n      swap1\n      dup2\n      mstore\n      0x20\n      add\n      0x0\n      keccak256\n      sload\n        /* \"MyToken/LionheadRabbit.sol\":3347:3377  allowed[_from][msg.sender].sub */\n      tag_79\n      swap1\n        /* \"MyToken/LionheadRabbit.sol\":3347:3385  allowed[_from][msg.sender].sub(_value) */\n      swap2\n      swap1\n      0xffffffff\n      and\n      jump\t// in\n    tag_82:\n        /* \"MyToken/LionheadRabbit.sol\":3318:3325  allowed */\n      0x1\n        /* \"MyToken/LionheadRabbit.sol\":3318:3332  allowed[_from] */\n      0x0\n        /* \"MyToken/LionheadRabbit.sol\":3326:3331  _from */\n      dup7\n        /* \"MyToken/LionheadRabbit.sol\":3318:3332  allowed[_from] */\n      0xffffffffffffffffffffffffffffffffffffffff\n      and\n      0xffffffffffffffffffffffffffffffffffffffff\n      and\n      dup2\n      mstore\n      0x20\n      add\n      swap1\n      dup2\n      mstore\n      0x20\n      add\n      0x0\n      keccak256\n        /* \"MyToken/LionheadRabbit.sol\":3318:3344  allowed[_from][msg.sender] */\n      0x0\n        /* \"MyToken/LionheadRabbit.sol\":3333:3343  msg.sender */\n      caller\n        /* \"MyToken/LionheadRabbit.sol\":3318:3344  allowed[_from][msg.sender] */\n      0xffffffffffffffffffffffffffffffffffffffff\n      and\n      0xffffffffffffffffffffffffffffffffffffffff\n      and\n      dup2\n      mstore\n      0x20\n      add\n      swap1\n      dup2\n      mstore\n      0x20\n      add\n      0x0\n      keccak256\n        /* \"MyToken/LionheadRabbit.sol\":3318:3385  allowed[_from][msg.sender] = allowed[_from][msg.sender].sub(_value) */\n      dup2\n      swap1\n      sstore\n      pop\n        /* \"MyToken/LionheadRabbit.sol\":3413:3416  _to */\n      dup3\n        /* \"MyToken/LionheadRabbit.sol\":3397:3425  Transfer(_from, _to, _value) */\n      0xffffffffffffffffffffffffffffffffffffffff\n      and\n        /* \"MyToken/LionheadRabbit.sol\":3406:3411  _from */\n      dup5\n        /* \"MyToken/LionheadRabbit.sol\":3397:3425  Transfer(_from, _to, _value) */\n      0xffffffffffffffffffffffffffffffffffffffff\n      and\n      0xddf252ad1be2c89b69c2b068fc378daa952ba7f163c4a11628f55a4df523b3ef\n        /* \"MyToken/LionheadRabbit.sol\":3418:3424  _value */\n      dup5\n        /* \"MyToken/LionheadRabbit.sol\":3397:3425  Transfer(_from, _to, _value) */\n      mload(0x40)\n      dup1\n      dup3\n      dup2\n      mstore\n      0x20\n      add\n      swap2\n      pop\n      pop\n      mload(0x40)\n      dup1\n      swap2\n      sub\n      swap1\n      log3\n        /* \"MyToken/LionheadRabbit.sol\":3439:3443  true */\n      0x1\n        /* \"MyToken/LionheadRabbit.sol\":3432:3443  return true */\n      swap1\n      pop\n        /* \"MyToken/LionheadRabbit.sol\":2944:3449  function transferFrom(address _from, address _to, uint256 _value) public returns (bool) {\r... */\n      swap4\n      swap3\n      pop\n      pop\n      pop\n      jump\t// out\n        /* \"MyToken/LionheadRabbit.sol\":4065:4477  function decreaseApproval(address _spender, uint _subtractedValue) public returns (bool) {\r... */\n    tag_54:\n        /* \"MyToken/LionheadRabbit.sol\":4148:4152  bool */\n      0x0\n        /* \"MyToken/LionheadRabbit.sol\":4161:4174  uint oldValue */\n      dup1\n        /* \"MyToken/LionheadRabbit.sol\":4177:4184  allowed */\n      0x1\n        /* \"MyToken/LionheadRabbit.sol\":4177:4196  allowed[msg.sender] */\n      0x0\n        /* \"MyToken/LionheadRabbit.sol\":4185:4195  msg.sender */\n      caller\n        /* \"MyToken/LionheadRabbit.sol\":4177:4196  allowed[msg.sender] */\n      0xffffffffffffffffffffffffffffffffffffffff\n      and\n      0xffffffffffffffffffffffffffffffffffffffff\n      and\n      dup2\n      mstore\n      0x20\n      add\n      swap1\n      dup2\n      mstore\n      0x20\n      add\n      0x0\n      keccak256\n        /* \"MyToken/LionheadRabbit.sol\":4177:4206  allowed[msg.sender][_spender] */\n      0x0\n        /* \"MyToken/LionheadRabbit.sol\":4197:4205  _spender */\n      dup6\n        /* \"MyToken/LionheadRabbit.sol\":4177:4206  allowed[msg.sender][_spender] */\n      0xffffffffffffffffffffffffffffffffffffffff\n      and\n      0xffffffffffffffffffffffffffffffffffffffff\n      and\n      dup2\n      mstore\n      0x20\n      add\n      swap1\n      dup2\n      mstore\n      0x20\n      add\n      0x0\n      keccak256\n      sload\n        /* \"MyToken/LionheadRabbit.sol\":4161:4206  uint oldValue = allowed[msg.sender][_spender] */\n      swap1\n      pop\n        /* \"MyToken/LionheadRabbit.sol\":4236:4244  oldValue */\n      dup1\n        /* \"MyToken/LionheadRabbit.sol\":4217:4233  _subtractedValue */\n      dup4\n        /* \"MyToken/LionheadRabbit.sol\":4217:4244  _subtractedValue > oldValue */\n      gt\n        /* \"MyToken/LionheadRabbit.sol\":4213:4381  if (_subtractedValue > oldValue) {\r... */\n      iszero\n      tag_84\n      jumpi\n        /* \"MyToken/LionheadRabbit.sol\":4287:4288  0 */\n      0x0\n        /* \"MyToken/LionheadRabbit.sol\":4255:4262  allowed */\n      0x1\n        /* \"MyToken/LionheadRabbit.sol\":4255:4274  allowed[msg.sender] */\n      0x0\n        /* \"MyToken/LionheadRabbit.sol\":4263:4273  msg.sender */\n      caller\n        /* \"MyToken/LionheadRabbit.sol\":4255:4274  allowed[msg.sender] */\n      0xffffffffffffffffffffffffffffffffffffffff\n      and\n      0xffffffffffffffffffffffffffffffffffffffff\n      and\n      dup2\n      mstore\n      0x20\n      add\n      swap1\n      dup2\n      mstore\n      0x20\n      add\n      0x0\n      keccak256\n        /* \"MyToken/LionheadRabbit.sol\":4255:4284  allowed[msg.sender][_spender] */\n      0x0\n        /* \"MyToken/LionheadRabbit.sol\":4275:4283  _spender */\n      dup7\n        /* \"MyToken/LionheadRabbit.sol\":4255:4284  allowed[msg.sender][_spender] */\n      0xffffffffffffffffffffffffffffffffffffffff\n      and\n      0xffffffffffffffffffffffffffffffffffffffff\n      and\n      dup2\n      mstore\n      0x20\n      add\n      swap1\n      dup2\n      mstore\n      0x20\n      add\n      0x0\n      keccak256\n        /* \"MyToken/LionheadRabbit.sol\":4255:4288  allowed[msg.sender][_spender] = 0 */\n      dup2\n      swap1\n      sstore\n      pop\n        /* \"MyToken/LionheadRabbit.sol\":4213:4381  if (_subtractedValue > oldValue) {\r... */\n      jump(tag_85)\n    tag_84:\n        /* \"MyToken/LionheadRabbit.sol\":4343:4373  oldValue.sub(_subtractedValue) */\n      tag_86\n        /* \"MyToken/LionheadRabbit.sol\":4356:4372  _subtractedValue */\n      dup4\n        /* \"MyToken/LionheadRabbit.sol\":4343:4351  oldValue */\n      dup3\n        /* \"MyToken/LionheadRabbit.sol\":4343:4355  oldValue.sub */\n      tag_79\n      swap1\n        /* \"MyToken/LionheadRabbit.sol\":4343:4373  oldValue.sub(_subtractedValue) */\n      swap2\n      swap1\n      0xffffffff\n      and\n      jump\t// in\n    tag_86:\n        /* \"MyToken/LionheadRabbit.sol\":4311:4318  allowed */\n      0x1\n        /* \"MyToken/LionheadRabbit.sol\":4311:4330  allowed[msg.sender] */\n      0x0\n        /* \"MyToken/LionheadRabbit.sol\":4319:4329  msg.sender */\n      caller\n        /* \"MyToken/LionheadRabbit.sol\":4311:4330  allowed[msg.sender] */\n      0xffffffffffffffffffffffffffffffffffffffff\n      and\n      0xffffffffffffffffffffffffffffffffffffffff\n      and\n      dup2\n      mstore\n      0x20\n      add\n      swap1\n      dup2\n      mstore\n      0x20\n      add\n      0x0\n      keccak256\n        /* \"MyToken/LionheadRabbit.sol\":4311:4340  allowed[msg.sender][_spender] */\n      0x0\n        /* \"MyToken/LionheadRabbit.sol\":4331:4339  _spender */\n      dup7\n        /* \"MyToken/LionheadRabbit.sol\":4311:4340  allowed[msg.sender][_spender] */\n      0xffffffffffffffffffffffffffffffffffffffff\n      and\n      0xffffffffffffffffffffffffffffffffffffffff\n      and\n      dup2\n      mstore\n      0x20\n      add\n      swap1\n      dup2\n      mstore\n      0x20\n      add\n      0x0\n      keccak256\n        /* \"MyToken/LionheadRabbit.sol\":4311:4373  allowed[msg.sender][_spender] = oldValue.sub(_subtractedValue) */\n      dup2\n      swap1\n      sstore\n      pop\n        /* \"MyToken/LionheadRabbit.sol\":4213:4381  if (_subtractedValue > oldValue) {\r... */\n    tag_85:\n        /* \"MyToken/LionheadRabbit.sol\":4413:4421  _spender */\n      dup4\n        /* \"MyToken/LionheadRabbit.sol\":4392:4453  Approval(msg.sender, _spender, allowed[msg.sender][_spender]) */\n      0xffffffffffffffffffffffffffffffffffffffff\n      and\n        /* \"MyToken/LionheadRabbit.sol\":4401:4411  msg.sender */\n      caller\n        /* \"MyToken/LionheadRabbit.sol\":4392:4453  Approval(msg.sender, _spender, allowed[msg.sender][_spender]) */\n      0xffffffffffffffffffffffffffffffffffffffff\n      and\n      0x8c5be1e5ebec7d5bd14f71427d1e84f3dd0314c0f7b2291e5b200ac8c7c3b925\n        /* \"MyToken/LionheadRabbit.sol\":4423:4430  allowed */\n      0x1\n        /* \"MyToken/LionheadRabbit.sol\":4423:4442  allowed[msg.sender] */\n      0x0\n        /* \"MyToken/LionheadRabbit.sol\":4431:4441  msg.sender */\n      caller\n        /* \"MyToken/LionheadRabbit.sol\":4423:4442  allowed[msg.sender] */\n      0xffffffffffffffffffffffffffffffffffffffff\n      and\n      0xffffffffffffffffffffffffffffffffffffffff\n      and\n      dup2\n      mstore\n      0x20\n      add\n      swap1\n      dup2\n      mstore\n      0x20\n      add\n      0x0\n      keccak256\n        /* \"MyToken/LionheadRabbit.sol\":4423:4452  allowed[msg.sender][_spender] */\n      0x0\n        /* \"MyToken/LionheadRabbit.sol\":4443:4451  _spender */\n      dup9\n        /* \"MyToken/LionheadRabbit.sol\":4423:4452  allowed[msg.sender][_spender] */\n      0xffffffffffffffffffffffffffffffffffffffff\n      and\n      0xffffffffffffffffffffffffffffffffffffffff\n      and\n      dup2\n      mstore\n      0x20\n      add\n      swap1\n      dup2\n      mstore\n      0x20\n      add\n      0x0\n      keccak256\n      sload\n        /* \"MyToken/LionheadRabbit.sol\":4392:4453  Approval(msg.sender, _spender, allowed[msg.sender][_spender]) */\n      mload(0x40)\n      dup1\n      dup3\n      dup2\n      mstore\n      0x20\n      add\n      swap2\n      pop\n      pop\n      mload(0x40)\n      dup1\n      swap2\n      sub\n      swap1\n      log3\n        /* \"MyToken/LionheadRabbit.sol\":4467:4471  true */\n      0x1\n        /* \"MyToken/LionheadRabbit.sol\":4460:4471  return true */\n      swap2\n      pop\n        /* \"MyToken/LionheadRabbit.sol\":4065:4477  function decreaseApproval(address _spender, uint _subtractedValue) public returns (bool) {\r... */\n      pop\n      swap3\n      swap2\n      pop\n      pop\n      jump\t// out\n        /* \"MyToken/LionheadRabbit.sol\":4485:4733  function _blackList(address _address, bool _isBlackListed) internal returns (bool) {\r... */\n    tag_60:\n        /* \"MyToken/LionheadRabbit.sol\":4562:4566  bool */\n      0x0\n        /* \"MyToken/LionheadRabbit.sol\":4608:4622  _isBlackListed */\n      dup2\n        /* \"MyToken/LionheadRabbit.sol\":4580:4622  tokenBlacklist[_address] != _isBlackListed */\n      iszero\n      iszero\n        /* \"MyToken/LionheadRabbit.sol\":4580:4594  tokenBlacklist */\n      0x2\n        /* \"MyToken/LionheadRabbit.sol\":4580:4604  tokenBlacklist[_address] */\n      0x0\n        /* \"MyToken/LionheadRabbit.sol\":4595:4603  _address */\n      dup6\n        /* \"MyToken/LionheadRabbit.sol\":4580:4604  tokenBlacklist[_address] */\n      0xffffffffffffffffffffffffffffffffffffffff\n      and\n      0xffffffffffffffffffffffffffffffffffffffff\n      and\n      dup2\n      mstore\n      0x20\n      add\n      swap1\n      dup2\n      mstore\n      0x20\n      add\n      0x0\n      keccak256\n      0x0\n      swap1\n      sload\n      swap1\n      0x100\n      exp\n      swap1\n      div\n      0xff\n      and\n        /* \"MyToken/LionheadRabbit.sol\":4580:4622  tokenBlacklist[_address] != _isBlackListed */\n      iszero\n      iszero\n      eq\n      iszero\n        /* \"MyToken/LionheadRabbit.sol\":4572:4623  require(tokenBlacklist[_address] != _isBlackListed) */\n      iszero\n      iszero\n      tag_88\n      jumpi\n      0x0\n      dup1\n      revert\n    tag_88:\n        /* \"MyToken/LionheadRabbit.sol\":4654:4668  _isBlackListed */\n      dup2\n        /* \"MyToken/LionheadRabbit.sol\":4627:4641  tokenBlacklist */\n      0x2\n        /* \"MyToken/LionheadRabbit.sol\":4627:4651  tokenBlacklist[_address] */\n      0x0\n        /* \"MyToken/LionheadRabbit.sol\":4642:4650  _address */\n      dup6\n        /* \"MyToken/LionheadRabbit.sol\":4627:4651  tokenBlacklist[_address] */\n      0xffffffffffffffffffffffffffffffffffffffff\n      and\n      0xffffffffffffffffffffffffffffffffffffffff\n      and\n      dup2\n      mstore\n      0x20\n      add\n      swap1\n      dup2\n      mstore\n      0x20\n      add\n      0x0\n      keccak256\n      0x0\n        /* \"MyToken/LionheadRabbit.sol\":4627:4668  tokenBlacklist[_address] = _isBlackListed */\n      0x100\n      exp\n      dup2\n      sload\n      dup2\n      0xff\n      mul\n      not\n      and\n      swap1\n      dup4\n      iszero\n      iszero\n      mul\n      or\n      swap1\n      sstore\n      pop\n        /* \"MyToken/LionheadRabbit.sol\":4687:4695  _address */\n      dup3\n        /* \"MyToken/LionheadRabbit.sol\":4677:4712  Blacklist(_address, _isBlackListed) */\n      0xffffffffffffffffffffffffffffffffffffffff\n      and\n      0xf7e58a63a036e3a7ef7921f83b6ae47930cf5c293dd3bfe7a857c6863409046d\n        /* \"MyToken/LionheadRabbit.sol\":4697:4711  _isBlackListed */\n      dup4\n        /* \"MyToken/LionheadRabbit.sol\":4677:4712  Blacklist(_address, _isBlackListed) */\n      mload(0x40)\n      dup1\n      dup3\n      iszero\n      iszero\n      iszero\n      iszero\n      dup2\n      mstore\n      0x20\n      add\n      swap2\n      pop\n      pop\n      mload(0x40)\n      dup1\n      swap2\n      sub\n      swap1\n      log2\n        /* \"MyToken/LionheadRabbit.sol\":4723:4727  true */\n      0x1\n        /* \"MyToken/LionheadRabbit.sol\":4716:4727  return true */\n      swap1\n      pop\n        /* \"MyToken/LionheadRabbit.sol\":4485:4733  function _blackList(address _address, bool _isBlackListed) internal returns (bool) {\r... */\n      swap3\n      swap2\n      pop\n      pop\n      jump\t// out\n        /* \"MyToken/LionheadRabbit.sol\":2377:2821  function transfer(address _to, uint256 _value) public returns (bool) {\r... */\n    tag_63:\n        /* \"MyToken/LionheadRabbit.sol\":2440:2444  bool */\n      0x0\n        /* \"MyToken/LionheadRabbit.sol\":2491:2496  false */\n      dup1\n        /* \"MyToken/LionheadRabbit.sol\":2461:2496  tokenBlacklist[msg.sender] == false */\n      iszero\n      iszero\n        /* \"MyToken/LionheadRabbit.sol\":2461:2475  tokenBlacklist */\n      0x2\n        /* \"MyToken/LionheadRabbit.sol\":2461:2487  tokenBlacklist[msg.sender] */\n      0x0\n        /* \"MyToken/LionheadRabbit.sol\":2476:2486  msg.sender */\n      caller\n        /* \"MyToken/LionheadRabbit.sol\":2461:2487  tokenBlacklist[msg.sender] */\n      0xffffffffffffffffffffffffffffffffffffffff\n      and\n      0xffffffffffffffffffffffffffffffffffffffff\n      and\n      dup2\n      mstore\n      0x20\n      add\n      swap1\n      dup2\n      mstore\n      0x20\n      add\n      0x0\n      keccak256\n      0x0\n      swap1\n      sload\n      swap1\n      0x100\n      exp\n      swap1\n      div\n      0xff\n      and\n        /* \"MyToken/LionheadRabbit.sol\":2461:2496  tokenBlacklist[msg.sender] == false */\n      iszero\n      iszero\n      eq\n        /* \"MyToken/LionheadRabbit.sol\":2453:2497  require(tokenBlacklist[msg.sender] == false) */\n      iszero\n      iszero\n      tag_90\n      jumpi\n      0x0\n      dup1\n      revert\n    tag_90:\n        /* \"MyToken/LionheadRabbit.sol\":2527:2528  0 */\n      0x0\n        /* \"MyToken/LionheadRabbit.sol\":2512:2529  _to != address(0) */\n      0xffffffffffffffffffffffffffffffffffffffff\n      and\n        /* \"MyToken/LionheadRabbit.sol\":2512:2515  _to */\n      dup4\n        /* \"MyToken/LionheadRabbit.sol\":2512:2529  _to != address(0) */\n      0xffffffffffffffffffffffffffffffffffffffff\n      and\n      eq\n      iszero\n        /* \"MyToken/LionheadRabbit.sol\":2504:2530  require(_to != address(0)) */\n      iszero\n      iszero\n      tag_91\n      jumpi\n      0x0\n      dup1\n      revert\n    tag_91:\n        /* \"MyToken/LionheadRabbit.sol\":2555:2563  balances */\n      0x3\n        /* \"MyToken/LionheadRabbit.sol\":2555:2575  balances[msg.sender] */\n      0x0\n        /* \"MyToken/LionheadRabbit.sol\":2564:2574  msg.sender */\n      caller\n        /* \"MyToken/LionheadRabbit.sol\":2555:2575  balances[msg.sender] */\n      0xffffffffffffffffffffffffffffffffffffffff\n      and\n      0xffffffffffffffffffffffffffffffffffffffff\n      and\n      dup2\n      mstore\n      0x20\n      add\n      swap1\n      dup2\n      mstore\n      0x20\n      add\n      0x0\n      keccak256\n      sload\n        /* \"MyToken/LionheadRabbit.sol\":2545:2551  _value */\n      dup3\n        /* \"MyToken/LionheadRabbit.sol\":2545:2575  _value <= balances[msg.sender] */\n      gt\n      iszero\n        /* \"MyToken/LionheadRabbit.sol\":2537:2576  require(_value <= balances[msg.sender]) */\n      iszero\n      iszero\n      tag_92\n      jumpi\n      0x0\n      dup1\n      revert\n    tag_92:\n        /* \"MyToken/LionheadRabbit.sol\":2672:2704  balances[msg.sender].sub(_value) */\n      tag_93\n        /* \"MyToken/LionheadRabbit.sol\":2697:2703  _value */\n      dup3\n        /* \"MyToken/LionheadRabbit.sol\":2672:2680  balances */\n      0x3\n        /* \"MyToken/LionheadRabbit.sol\":2672:2692  balances[msg.sender] */\n      0x0\n        /* \"MyToken/LionheadRabbit.sol\":2681:2691  msg.sender */\n      caller\n        /* \"MyToken/LionheadRabbit.sol\":2672:2692  balances[msg.sender] */\n      0xffffffffffffffffffffffffffffffffffffffff\n      and\n      0xffffffffffffffffffffffffffffffffffffffff\n      and\n      dup2\n      mstore\n      0x20\n      add\n      swap1\n      dup2\n      mstore\n      0x20\n      add\n      0x0\n      keccak256\n      sload\n        /* \"MyToken/LionheadRabbit.sol\":2672:2696  balances[msg.sender].sub */\n      tag_79\n      swap1\n        /* \"MyToken/LionheadRabbit.sol\":2672:2704  balances[msg.sender].sub(_value) */\n      swap2\n      swap1\n      0xffffffff\n      and\n      jump\t// in\n    tag_93:\n        /* \"MyToken/LionheadRabbit.sol\":2649:2657  balances */\n      0x3\n        /* \"MyToken/LionheadRabbit.sol\":2649:2669  balances[msg.sender] */\n      0x0\n        /* \"MyToken/LionheadRabbit.sol\":2658:2668  msg.sender */\n      caller\n        /* \"MyToken/LionheadRabbit.sol\":2649:2669  balances[msg.sender] */\n      0xffffffffffffffffffffffffffffffffffffffff\n      and\n      0xffffffffffffffffffffffffffffffffffffffff\n      and\n      dup2\n      mstore\n      0x20\n      add\n      swap1\n      dup2\n      mstore\n      0x20\n      add\n      0x0\n      keccak256\n        /* \"MyToken/LionheadRabbit.sol\":2649:2704  balances[msg.sender] = balances[msg.sender].sub(_value) */\n      dup2\n      swap1\n      sstore\n      pop\n        /* \"MyToken/LionheadRabbit.sol\":2727:2752  balances[_to].add(_value) */\n      tag_94\n        /* \"MyToken/LionheadRabbit.sol\":2745:2751  _value */\n      dup3\n        /* \"MyToken/LionheadRabbit.sol\":2727:2735  balances */\n      0x3\n        /* \"MyToken/LionheadRabbit.sol\":2727:2740  balances[_to] */\n      0x0\n        /* \"MyToken/LionheadRabbit.sol\":2736:2739  _to */\n      dup7\n        /* \"MyToken/LionheadRabbit.sol\":2727:2740  balances[_to] */\n      0xffffffffffffffffffffffffffffffffffffffff\n      and\n      0xffffffffffffffffffffffffffffffffffffffff\n      and\n      dup2\n      mstore\n      0x20\n      add\n      swap1\n      dup2\n      mstore\n      0x20\n      add\n      0x0\n      keccak256\n      sload\n        /* \"MyToken/LionheadRabbit.sol\":2727:2744  balances[_to].add */\n      tag_81\n      swap1\n        /* \"MyToken/LionheadRabbit.sol\":2727:2752  balances[_to].add(_value) */\n      swap2\n      swap1\n      0xffffffff\n      and\n      jump\t// in\n    tag_94:\n        /* \"MyToken/LionheadRabbit.sol\":2711:2719  balances */\n      0x3\n        /* \"MyToken/LionheadRabbit.sol\":2711:2724  balances[_to] */\n      0x0\n        /* \"MyToken/LionheadRabbit.sol\":2720:2723  _to */\n      dup6\n        /* \"MyToken/LionheadRabbit.sol\":2711:2724  balances[_to] */\n      0xffffffffffffffffffffffffffffffffffffffff\n      and\n      0xffffffffffffffffffffffffffffffffffffffff\n      and\n      dup2\n      mstore\n      0x20\n      add\n      swap1\n      dup2\n      mstore\n      0x20\n      add\n      0x0\n      keccak256\n        /* \"MyToken/LionheadRabbit.sol\":2711:2752  balances[_to] = balances[_to].add(_value) */\n      dup2\n      swap1\n      sstore\n      pop\n        /* \"MyToken/LionheadRabbit.sol\":2785:2788  _to */\n      dup3\n        /* \"MyToken/LionheadRabbit.sol\":2764:2797  Transfer(msg.sender, _to, _value) */\n      0xffffffffffffffffffffffffffffffffffffffff\n      and\n        /* \"MyToken/LionheadRabbit.sol\":2773:2783  msg.sender */\n      caller\n        /* \"MyToken/LionheadRabbit.sol\":2764:2797  Transfer(msg.sender, _to, _value) */\n      0xffffffffffffffffffffffffffffffffffffffff\n      and\n      0xddf252ad1be2c89b69c2b068fc378daa952ba7f163c4a11628f55a4df523b3ef\n        /* \"MyToken/LionheadRabbit.sol\":2790:2796  _value */\n      dup5\n        /* \"MyToken/LionheadRabbit.sol\":2764:2797  Transfer(msg.sender, _to, _value) */\n      mload(0x40)\n      dup1\n      dup3\n      dup2\n      mstore\n      0x20\n      add\n      swap2\n      pop\n      pop\n      mload(0x40)\n      dup1\n      swap2\n      sub\n      swap1\n      log3\n        /* \"MyToken/LionheadRabbit.sol\":2811:2815  true */\n      0x1\n        /* \"MyToken/LionheadRabbit.sol\":2804:2815  return true */\n      swap1\n      pop\n        /* \"MyToken/LionheadRabbit.sol\":2377:2821  function transfer(address _to, uint256 _value) public returns (bool) {\r... */\n      swap3\n      swap2\n      pop\n      pop\n      jump\t// out\n        /* \"MyToken/LionheadRabbit.sol\":3793:4059  function increaseApproval(address _spender, uint _addedValue) public returns (bool) {\r... */\n    tag_66:\n        /* \"MyToken/LionheadRabbit.sol\":3871:3875  bool */\n      0x0\n        /* \"MyToken/LionheadRabbit.sol\":3916:3962  allowed[msg.sender][_spender].add(_addedValue) */\n      tag_96\n        /* \"MyToken/LionheadRabbit.sol\":3950:3961  _addedValue */\n      dup3\n        /* \"MyToken/LionheadRabbit.sol\":3916:3923  allowed */\n      0x1\n        /* \"MyToken/LionheadRabbit.sol\":3916:3935  allowed[msg.sender] */\n      0x0\n        /* \"MyToken/LionheadRabbit.sol\":3924:3934  msg.sender */\n      caller\n        /* \"MyToken/LionheadRabbit.sol\":3916:3935  allowed[msg.sender] */\n      0xffffffffffffffffffffffffffffffffffffffff\n      and\n      0xffffffffffffffffffffffffffffffffffffffff\n      and\n      dup2\n      mstore\n      0x20\n      add\n      swap1\n      dup2\n      mstore\n      0x20\n      add\n      0x0\n      keccak256\n        /* \"MyToken/LionheadRabbit.sol\":3916:3945  allowed[msg.sender][_spender] */\n      0x0\n        /* \"MyToken/LionheadRabbit.sol\":3936:3944  _spender */\n      dup7\n        /* \"MyToken/LionheadRabbit.sol\":3916:3945  allowed[msg.sender][_spender] */\n      0xffffffffffffffffffffffffffffffffffffffff\n      and\n      0xffffffffffffffffffffffffffffffffffffffff\n      and\n      dup2\n      mstore\n      0x20\n      add\n      swap1\n      dup2\n      mstore\n      0x20\n      add\n      0x0\n      keccak256\n      sload\n        /* \"MyToken/LionheadRabbit.sol\":3916:3949  allowed[msg.sender][_spender].add */\n      tag_81\n      swap1\n        /* \"MyToken/LionheadRabbit.sol\":3916:3962  allowed[msg.sender][_spender].add(_addedValue) */\n      swap2\n      swap1\n      0xffffffff\n      and\n      jump\t// in\n    tag_96:\n        /* \"MyToken/LionheadRabbit.sol\":3884:3891  allowed */\n      0x1\n        /* \"MyToken/LionheadRabbit.sol\":3884:3903  allowed[msg.sender] */\n      0x0\n        /* \"MyToken/LionheadRabbit.sol\":3892:3902  msg.sender */\n      caller\n        /* \"MyToken/LionheadRabbit.sol\":3884:3903  allowed[msg.sender] */\n      0xffffffffffffffffffffffffffffffffffffffff\n      and\n      0xffffffffffffffffffffffffffffffffffffffff\n      and\n      dup2\n      mstore\n      0x20\n      add\n      swap1\n      dup2\n      mstore\n      0x20\n      add\n      0x0\n      keccak256\n        /* \"MyToken/LionheadRabbit.sol\":3884:3913  allowed[msg.sender][_spender] */\n      0x0\n        /* \"MyToken/LionheadRabbit.sol\":3904:3912  _spender */\n      dup6\n        /* \"MyToken/LionheadRabbit.sol\":3884:3913  allowed[msg.sender][_spender] */\n      0xffffffffffffffffffffffffffffffffffffffff\n      and\n      0xffffffffffffffffffffffffffffffffffffffff\n      and\n      dup2\n      mstore\n      0x20\n      add\n      swap1\n      dup2\n      mstore\n      0x20\n      add\n      0x0\n      keccak256\n        /* \"MyToken/LionheadRabbit.sol\":3884:3962  allowed[msg.sender][_spender] = allowed[msg.sender][_spender].add(_addedValue) */\n      dup2\n      swap1\n      sstore\n      pop\n        /* \"MyToken/LionheadRabbit.sol\":3995:4003  _spender */\n      dup3\n        /* \"MyToken/LionheadRabbit.sol\":3974:4035  Approval(msg.sender, _spender, allowed[msg.sender][_spender]) */\n      0xffffffffffffffffffffffffffffffffffffffff\n      and\n        /* \"MyToken/LionheadRabbit.sol\":3983:3993  msg.sender */\n      caller\n        /* \"MyToken/LionheadRabbit.sol\":3974:4035  Approval(msg.sender, _spender, allowed[msg.sender][_spender]) */\n      0xffffffffffffffffffffffffffffffffffffffff\n      and\n      0x8c5be1e5ebec7d5bd14f71427d1e84f3dd0314c0f7b2291e5b200ac8c7c3b925\n        /* \"MyToken/LionheadRabbit.sol\":4005:4012  allowed */\n      0x1\n        /* \"MyToken/LionheadRabbit.sol\":4005:4024  allowed[msg.sender] */\n      0x0\n        /* \"MyToken/LionheadRabbit.sol\":4013:4023  msg.sender */\n      caller\n        /* \"MyToken/LionheadRabbit.sol\":4005:4024  allowed[msg.sender] */\n      0xffffffffffffffffffffffffffffffffffffffff\n      and\n      0xffffffffffffffffffffffffffffffffffffffff\n      and\n      dup2\n      mstore\n      0x20\n      add\n      swap1\n      dup2\n      mstore\n      0x20\n      add\n      0x0\n      keccak256\n        /* \"MyToken/LionheadRabbit.sol\":4005:4034  allowed[msg.sender][_spender] */\n      0x0\n        /* \"MyToken/LionheadRabbit.sol\":4025:4033  _spender */\n      dup8\n        /* \"MyToken/LionheadRabbit.sol\":4005:4034  allowed[msg.sender][_spender] */\n      0xffffffffffffffffffffffffffffffffffffffff\n      and\n      0xffffffffffffffffffffffffffffffffffffffff\n      and\n      dup2\n      mstore\n      0x20\n      add\n      swap1\n      dup2\n      mstore\n      0x20\n      add\n      0x0\n      keccak256\n      sload\n        /* \"MyToken/LionheadRabbit.sol\":3974:4035  Approval(msg.sender, _spender, allowed[msg.sender][_spender]) */\n      mload(0x40)\n      dup1\n      dup3\n      dup2\n      mstore\n      0x20\n      add\n      swap2\n      pop\n      pop\n      mload(0x40)\n      dup1\n      swap2\n      sub\n      swap1\n      log3\n        /* \"MyToken/LionheadRabbit.sol\":4049:4053  true */\n      0x1\n        /* \"MyToken/LionheadRabbit.sol\":4042:4053  return true */\n      swap1\n      pop\n        /* \"MyToken/LionheadRabbit.sol\":3793:4059  function increaseApproval(address _spender, uint _addedValue) public returns (bool) {\r... */\n      swap3\n      swap2\n      pop\n      pop\n      jump\t// out\n        /* \"MyToken/LionheadRabbit.sol\":547:660  function sub(uint256 a, uint256 b) internal pure returns (uint256) {\r... */\n    tag_79:\n        /* \"MyToken/LionheadRabbit.sol\":605:612  uint256 */\n      0x0\n        /* \"MyToken/LionheadRabbit.sol\":633:634  a */\n      dup3\n        /* \"MyToken/LionheadRabbit.sol\":628:629  b */\n      dup3\n        /* \"MyToken/LionheadRabbit.sol\":628:634  b <= a */\n      gt\n      iszero\n        /* \"MyToken/LionheadRabbit.sol\":621:635  assert(b <= a) */\n      iszero\n      iszero\n      tag_98\n      jumpi\n      invalid\n    tag_98:\n        /* \"MyToken/LionheadRabbit.sol\":653:654  b */\n      dup2\n        /* \"MyToken/LionheadRabbit.sol\":649:650  a */\n      dup4\n        /* \"MyToken/LionheadRabbit.sol\":649:654  a - b */\n      sub\n        /* \"MyToken/LionheadRabbit.sol\":642:654  return a - b */\n      swap1\n      pop\n        /* \"MyToken/LionheadRabbit.sol\":547:660  function sub(uint256 a, uint256 b) internal pure returns (uint256) {\r... */\n      swap3\n      swap2\n      pop\n      pop\n      jump\t// out\n        /* \"MyToken/LionheadRabbit.sol\":666:799  function add(uint256 a, uint256 b) internal pure returns (uint256) {\r... */\n    tag_81:\n        /* \"MyToken/LionheadRabbit.sol\":724:731  uint256 */\n      0x0\n        /* \"MyToken/LionheadRabbit.sol\":740:749  uint256 c */\n      dup1\n        /* \"MyToken/LionheadRabbit.sol\":756:757  b */\n      dup3\n        /* \"MyToken/LionheadRabbit.sol\":752:753  a */\n      dup5\n        /* \"MyToken/LionheadRabbit.sol\":752:757  a + b */\n      add\n        /* \"MyToken/LionheadRabbit.sol\":740:757  uint256 c = a + b */\n      swap1\n      pop\n        /* \"MyToken/LionheadRabbit.sol\":776:777  a */\n      dup4\n        /* \"MyToken/LionheadRabbit.sol\":771:772  c */\n      dup2\n        /* \"MyToken/LionheadRabbit.sol\":771:777  c >= a */\n      lt\n      iszero\n        /* \"MyToken/LionheadRabbit.sol\":764:778  assert(c >= a) */\n      iszero\n      iszero\n      tag_100\n      jumpi\n      invalid\n    tag_100:\n        /* \"MyToken/LionheadRabbit.sol\":792:793  c */\n      dup1\n        /* \"MyToken/LionheadRabbit.sol\":785:793  return c */\n      swap2\n      pop\n        /* \"MyToken/LionheadRabbit.sol\":666:799  function add(uint256 a, uint256 b) internal pure returns (uint256) {\r... */\n      pop\n      swap3\n      swap2\n      pop\n      pop\n      jump\t// out\n\n    auxdata: 0xa165627a7a72305820da0a66cb3019b8c203b4dfb2e8879257fdeb06d4b1c8cb5821a15ae8e33fed500029\n}\n",
				"bytecode": {
					"linkReferences": {},
					"object": "608060405234801561001057600080fd5b50611588806100206000396000f3006080604052600436106100af576000357c0100000000000000000000000000000000000000000000000000000000900463ffffffff168063095ea7b3146100b457806318160ddd1461011957806323b872dd1461014457806366188463146101c957806370a082311461022e578063794be707146102855780638da5cb5b146102ec578063a9059cbb14610343578063d73dd623146103a8578063dd62ed3e1461040d578063f2fde38b14610484575b600080fd5b3480156100c057600080fd5b506100ff600480360381019080803573ffffffffffffffffffffffffffffffffffffffff169060200190929190803590602001909291905050506104c7565b604051808215151515815260200191505060405180910390f35b34801561012557600080fd5b5061012e6104db565b6040518082815260200191505060405180910390f35b34801561015057600080fd5b506101af600480360381019080803573ffffffffffffffffffffffffffffffffffffffff169060200190929190803573ffffffffffffffffffffffffffffffffffffffff169060200190929190803590602001909291905050506104e1565b604051808215151515815260200191505060405180910390f35b3480156101d557600080fd5b50610214600480360381019080803573ffffffffffffffffffffffffffffffffffffffff169060200190929190803590602001909291905050506104f7565b604051808215151515815260200191505060405180910390f35b34801561023a57600080fd5b5061026f600480360381019080803573ffffffffffffffffffffffffffffffffffffffff16906020019092919050505061050b565b6040518082815260200191505060405180910390f35b34801561029157600080fd5b506102d2600480360381019080803573ffffffffffffffffffffffffffffffffffffffff169060200190929190803515159060200190929190505050610554565b604051808215151515815260200191505060405180910390f35b3480156102f857600080fd5b506103016105c4565b604051808273ffffffffffffffffffffffffffffffffffffffff1673ffffffffffffffffffffffffffffffffffffffff16815260200191505060405180910390f35b34801561034f57600080fd5b5061038e600480360381019080803573ffffffffffffffffffffffffffffffffffffffff169060200190929190803590602001909291905050506105ea565b604051808215151515815260200191505060405180910390f35b3480156103b457600080fd5b506103f3600480360381019080803573ffffffffffffffffffffffffffffffffffffffff169060200190929190803590602001909291905050506105fe565b604051808215151515815260200191505060405180910390f35b34801561041957600080fd5b5061046e600480360381019080803573ffffffffffffffffffffffffffffffffffffffff169060200190929190803573ffffffffffffffffffffffffffffffffffffffff169060200190929190505050610612565b6040518082815260200191505060405180910390f35b34801561049057600080fd5b506104c5600480360381019080803573ffffffffffffffffffffffffffffffffffffffff169060200190929190505050610699565b005b60006104d383836107f1565b905092915050565b60005481565b60006104ee8484846108e3565b90509392505050565b60006105038383610d01565b905092915050565b6000600360008373ffffffffffffffffffffffffffffffffffffffff1673ffffffffffffffffffffffffffffffffffffffff168152602001908152602001600020549050919050565b6000600460009054906101000a900473ffffffffffffffffffffffffffffffffffffffff1673ffffffffffffffffffffffffffffffffffffffff163373ffffffffffffffffffffffffffffffffffffffff161415156105b257600080fd5b6105bc8383610f92565b905092915050565b600460009054906101000a900473ffffffffffffffffffffffffffffffffffffffff1681565b60006105f683836110a6565b905092915050565b600061060a8383611329565b905092915050565b6000600160008473ffffffffffffffffffffffffffffffffffffffff1673ffffffffffffffffffffffffffffffffffffffff16815260200190815260200160002060008373ffffffffffffffffffffffffffffffffffffffff1673ffffffffffffffffffffffffffffffffffffffff16815260200190815260200160002054905092915050565b600460009054906101000a900473ffffffffffffffffffffffffffffffffffffffff1673ffffffffffffffffffffffffffffffffffffffff163373ffffffffffffffffffffffffffffffffffffffff161415156106f557600080fd5b600073ffffffffffffffffffffffffffffffffffffffff168173ffffffffffffffffffffffffffffffffffffffff161415151561073157600080fd5b8073ffffffffffffffffffffffffffffffffffffffff16600460009054906101000a900473ffffffffffffffffffffffffffffffffffffffff1673ffffffffffffffffffffffffffffffffffffffff167f8be0079c531659141344cd1fd0a4f28419497f9722a3daafe3b4186f6b6457e060405160405180910390a380600460006101000a81548173ffffffffffffffffffffffffffffffffffffffff021916908373ffffffffffffffffffffffffffffffffffffffff16021790555050565b600081600160003373ffffffffffffffffffffffffffffffffffffffff1673ffffffffffffffffffffffffffffffffffffffff16815260200190815260200160002060008573ffffffffffffffffffffffffffffffffffffffff1673ffffffffffffffffffffffffffffffffffffffff168152602001908152602001600020819055508273ffffffffffffffffffffffffffffffffffffffff163373ffffffffffffffffffffffffffffffffffffffff167f8c5be1e5ebec7d5bd14f71427d1e84f3dd0314c0f7b2291e5b200ac8c7c3b925846040518082815260200191505060405180910390a36001905092915050565b6000801515600260003373ffffffffffffffffffffffffffffffffffffffff1673ffffffffffffffffffffffffffffffffffffffff16815260200190815260200160002060009054906101000a900460ff16151514151561094357600080fd5b600073ffffffffffffffffffffffffffffffffffffffff168373ffffffffffffffffffffffffffffffffffffffff161415151561097f57600080fd5b600360008573ffffffffffffffffffffffffffffffffffffffff1673ffffffffffffffffffffffffffffffffffffffff1681526020019081526020016000205482111515156109cd57600080fd5b600160008573ffffffffffffffffffffffffffffffffffffffff1673ffffffffffffffffffffffffffffffffffffffff16815260200190815260200160002060003373ffffffffffffffffffffffffffffffffffffffff1673ffffffffffffffffffffffffffffffffffffffff168152602001908152602001600020548211151515610a5857600080fd5b610aaa82600360008773ffffffffffffffffffffffffffffffffffffffff1673ffffffffffffffffffffffffffffffffffffffff1681526020019081526020016000205461152590919063ffffffff16565b600360008673ffffffffffffffffffffffffffffffffffffffff1673ffffffffffffffffffffffffffffffffffffffff16815260200190815260200160002081905550610b3f82600360008673ffffffffffffffffffffffffffffffffffffffff1673ffffffffffffffffffffffffffffffffffffffff1681526020019081526020016000205461153e90919063ffffffff16565b600360008573ffffffffffffffffffffffffffffffffffffffff1673ffffffffffffffffffffffffffffffffffffffff16815260200190815260200160002081905550610c1182600160008773ffffffffffffffffffffffffffffffffffffffff1673ffffffffffffffffffffffffffffffffffffffff16815260200190815260200160002060003373ffffffffffffffffffffffffffffffffffffffff1673ffffffffffffffffffffffffffffffffffffffff1681526020019081526020016000205461152590919063ffffffff16565b600160008673ffffffffffffffffffffffffffffffffffffffff1673ffffffffffffffffffffffffffffffffffffffff16815260200190815260200160002060003373ffffffffffffffffffffffffffffffffffffffff1673ffffffffffffffffffffffffffffffffffffffff168152602001908152602001600020819055508273ffffffffffffffffffffffffffffffffffffffff168473ffffffffffffffffffffffffffffffffffffffff167fddf252ad1be2c89b69c2b068fc378daa952ba7f163c4a11628f55a4df523b3ef846040518082815260200191505060405180910390a3600190509392505050565b600080600160003373ffffffffffffffffffffffffffffffffffffffff1673ffffffffffffffffffffffffffffffffffffffff16815260200190815260200160002060008573ffffffffffffffffffffffffffffffffffffffff1673ffffffffffffffffffffffffffffffffffffffff16815260200190815260200160002054905080831115610e12576000600160003373ffffffffffffffffffffffffffffffffffffffff1673ffffffffffffffffffffffffffffffffffffffff16815260200190815260200160002060008673ffffffffffffffffffffffffffffffffffffffff1673ffffffffffffffffffffffffffffffffffffffff16815260200190815260200160002081905550610ea6565b610e25838261152590919063ffffffff16565b600160003373ffffffffffffffffffffffffffffffffffffffff1673ffffffffffffffffffffffffffffffffffffffff16815260200190815260200160002060008673ffffffffffffffffffffffffffffffffffffffff1673ffffffffffffffffffffffffffffffffffffffff168152602001908152602001600020819055505b8373ffffffffffffffffffffffffffffffffffffffff163373ffffffffffffffffffffffffffffffffffffffff167f8c5be1e5ebec7d5bd14f71427d1e84f3dd0314c0f7b2291e5b200ac8c7c3b925600160003373ffffffffffffffffffffffffffffffffffffffff1673ffffffffffffffffffffffffffffffffffffffff16815260200190815260200160002060008873ffffffffffffffffffffffffffffffffffffffff1673ffffffffffffffffffffffffffffffffffffffff168152602001908152602001600020546040518082815260200191505060405180910390a3600191505092915050565b6000811515600260008573ffffffffffffffffffffffffffffffffffffffff1673ffffffffffffffffffffffffffffffffffffffff16815260200190815260200160002060009054906101000a900460ff16151514151515610ff357600080fd5b81600260008573ffffffffffffffffffffffffffffffffffffffff1673ffffffffffffffffffffffffffffffffffffffff16815260200190815260200160002060006101000a81548160ff0219169083151502179055508273ffffffffffffffffffffffffffffffffffffffff167ff7e58a63a036e3a7ef7921f83b6ae47930cf5c293dd3bfe7a857c6863409046d83604051808215151515815260200191505060405180910390a26001905092915050565b6000801515600260003373ffffffffffffffffffffffffffffffffffffffff1673ffffffffffffffffffffffffffffffffffffffff16815260200190815260200160002060009054906101000a900460ff16151514151561110657600080fd5b600073ffffffffffffffffffffffffffffffffffffffff168373ffffffffffffffffffffffffffffffffffffffff161415151561114257600080fd5b600360003373ffffffffffffffffffffffffffffffffffffffff1673ffffffffffffffffffffffffffffffffffffffff16815260200190815260200160002054821115151561119057600080fd5b6111e282600360003373ffffffffffffffffffffffffffffffffffffffff1673ffffffffffffffffffffffffffffffffffffffff1681526020019081526020016000205461152590919063ffffffff16565b600360003373ffffffffffffffffffffffffffffffffffffffff1673ffffffffffffffffffffffffffffffffffffffff1681526020019081526020016000208190555061127782600360008673ffffffffffffffffffffffffffffffffffffffff1673ffffffffffffffffffffffffffffffffffffffff1681526020019081526020016000205461153e90919063ffffffff16565b600360008573ffffffffffffffffffffffffffffffffffffffff1673ffffffffffffffffffffffffffffffffffffffff168152602001908152602001600020819055508273ffffffffffffffffffffffffffffffffffffffff163373ffffffffffffffffffffffffffffffffffffffff167fddf252ad1be2c89b69c2b068fc378daa952ba7f163c4a11628f55a4df523b3ef846040518082815260200191505060405180910390a36001905092915050565b60006113ba82600160003373ffffffffffffffffffffffffffffffffffffffff1673ffffffffffffffffffffffffffffffffffffffff16815260200190815260200160002060008673ffffffffffffffffffffffffffffffffffffffff1673ffffffffffffffffffffffffffffffffffffffff1681526020019081526020016000205461153e90919063ffffffff16565b600160003373ffffffffffffffffffffffffffffffffffffffff1673ffffffffffffffffffffffffffffffffffffffff16815260200190815260200160002060008573ffffffffffffffffffffffffffffffffffffffff1673ffffffffffffffffffffffffffffffffffffffff168152602001908152602001600020819055508273ffffffffffffffffffffffffffffffffffffffff163373ffffffffffffffffffffffffffffffffffffffff167f8c5be1e5ebec7d5bd14f71427d1e84f3dd0314c0f7b2291e5b200ac8c7c3b925600160003373ffffffffffffffffffffffffffffffffffffffff1673ffffffffffffffffffffffffffffffffffffffff16815260200190815260200160002060008773ffffffffffffffffffffffffffffffffffffffff1673ffffffffffffffffffffffffffffffffffffffff168152602001908152602001600020546040518082815260200191505060405180910390a36001905092915050565b600082821115151561153357fe5b818303905092915050565b600080828401905083811015151561155257fe5b80915050929150505600a165627a7a72305820da0a66cb3019b8c203b4dfb2e8879257fdeb06d4b1c8cb5821a15ae8e33fed500029",
					"opcodes": "PUSH1 0x80 PUSH1 0x40 MSTORE CALLVALUE DUP1 ISZERO PUSH2 0x10 JUMPI PUSH1 0x0 DUP1 REVERT JUMPDEST POP PUSH2 0x1588 DUP1 PUSH2 0x20 PUSH1 0x0 CODECOPY PUSH1 0x0 RETURN STOP PUSH1 0x80 PUSH1 0x40 MSTORE PUSH1 0x4 CALLDATASIZE LT PUSH2 0xAF JUMPI PUSH1 0x0 CALLDATALOAD PUSH29 0x100000000000000000000000000000000000000000000000000000000 SWAP1 DIV PUSH4 0xFFFFFFFF AND DUP1 PUSH4 0x95EA7B3 EQ PUSH2 0xB4 JUMPI DUP1 PUSH4 0x18160DDD EQ PUSH2 0x119 JUMPI DUP1 PUSH4 0x23B872DD EQ PUSH2 0x144 JUMPI DUP1 PUSH4 0x66188463 EQ PUSH2 0x1C9 JUMPI DUP1 PUSH4 0x70A08231 EQ PUSH2 0x22E JUMPI DUP1 PUSH4 0x794BE707 EQ PUSH2 0x285 JUMPI DUP1 PUSH4 0x8DA5CB5B EQ PUSH2 0x2EC JUMPI DUP1 PUSH4 0xA9059CBB EQ PUSH2 0x343 JUMPI DUP1 PUSH4 0xD73DD623 EQ PUSH2 0x3A8 JUMPI DUP1 PUSH4 0xDD62ED3E EQ PUSH2 0x40D JUMPI DUP1 PUSH4 0xF2FDE38B EQ PUSH2 0x484 JUMPI JUMPDEST PUSH1 0x0 DUP1 REVERT JUMPDEST CALLVALUE DUP1 ISZERO PUSH2 0xC0 JUMPI PUSH1 0x0 DUP1 REVERT JUMPDEST POP PUSH2 0xFF PUSH1 0x4 DUP1 CALLDATASIZE SUB DUP2 ADD SWAP1 DUP1 DUP1 CALLDATALOAD PUSH20 0xFFFFFFFFFFFFFFFFFFFFFFFFFFFFFFFFFFFFFFFF AND SWAP1 PUSH1 0x20 ADD SWAP1 SWAP3 SWAP2 SWAP1 DUP1 CALLDATALOAD SWAP1 PUSH1 0x20 ADD SWAP1 SWAP3 SWAP2 SWAP1 POP POP POP PUSH2 0x4C7 JUMP JUMPDEST PUSH1 0x40 MLOAD DUP1 DUP3 ISZERO ISZERO ISZERO ISZERO DUP2 MSTORE PUSH1 0x20 ADD SWAP2 POP POP PUSH1 0x40 MLOAD DUP1 SWAP2 SUB SWAP1 RETURN JUMPDEST CALLVALUE DUP1 ISZERO PUSH2 0x125 JUMPI PUSH1 0x0 DUP1 REVERT JUMPDEST POP PUSH2 0x12E PUSH2 0x4DB JUMP JUMPDEST PUSH1 0x40 MLOAD DUP1 DUP3 DUP2 MSTORE PUSH1 0x20 ADD SWAP2 POP POP PUSH1 0x40 MLOAD DUP1 SWAP2 SUB SWAP1 RETURN JUMPDEST CALLVALUE DUP1 ISZERO PUSH2 0x150 JUMPI PUSH1 0x0 DUP1 REVERT JUMPDEST POP PUSH2 0x1AF PUSH1 0x4 DUP1 CALLDATASIZE SUB DUP2 ADD SWAP1 DUP1 DUP1 CALLDATALOAD PUSH20 0xFFFFFFFFFFFFFFFFFFFFFFFFFFFFFFFFFFFFFFFF AND SWAP1 PUSH1 0x20 ADD SWAP1 SWAP3 SWAP2 SWAP1 DUP1 CALLDATALOAD PUSH20 0xFFFFFFFFFFFFFFFFFFFFFFFFFFFFFFFFFFFFFFFF AND SWAP1 PUSH1 0x20 ADD SWAP1 SWAP3 SWAP2 SWAP1 DUP1 CALLDATALOAD SWAP1 PUSH1 0x20 ADD SWAP1 SWAP3 SWAP2 SWAP1 POP POP POP PUSH2 0x4E1 JUMP JUMPDEST PUSH1 0x40 MLOAD DUP1 DUP3 ISZERO ISZERO ISZERO ISZERO DUP2 MSTORE PUSH1 0x20 ADD SWAP2 POP POP PUSH1 0x40 MLOAD DUP1 SWAP2 SUB SWAP1 RETURN JUMPDEST CALLVALUE DUP1 ISZERO PUSH2 0x1D5 JUMPI PUSH1 0x0 DUP1 REVERT JUMPDEST POP PUSH2 0x214 PUSH1 0x4 DUP1 CALLDATASIZE SUB DUP2 ADD SWAP1 DUP1 DUP1 CALLDATALOAD PUSH20 0xFFFFFFFFFFFFFFFFFFFFFFFFFFFFFFFFFFFFFFFF AND SWAP1 PUSH1 0x20 ADD SWAP1 SWAP3 SWAP2 SWAP1 DUP1 CALLDATALOAD SWAP1 PUSH1 0x20 ADD SWAP1 SWAP3 SWAP2 SWAP1 POP POP POP PUSH2 0x4F7 JUMP JUMPDEST PUSH1 0x40 MLOAD DUP1 DUP3 ISZERO ISZERO ISZERO ISZERO DUP2 MSTORE PUSH1 0x20 ADD SWAP2 POP POP PUSH1 0x40 MLOAD DUP1 SWAP2 SUB SWAP1 RETURN JUMPDEST CALLVALUE DUP1 ISZERO PUSH2 0x23A JUMPI PUSH1 0x0 DUP1 REVERT JUMPDEST POP PUSH2 0x26F PUSH1 0x4 DUP1 CALLDATASIZE SUB DUP2 ADD SWAP1 DUP1 DUP1 CALLDATALOAD PUSH20 0xFFFFFFFFFFFFFFFFFFFFFFFFFFFFFFFFFFFFFFFF AND SWAP1 PUSH1 0x20 ADD SWAP1 SWAP3 SWAP2 SWAP1 POP POP POP PUSH2 0x50B JUMP JUMPDEST PUSH1 0x40 MLOAD DUP1 DUP3 DUP2 MSTORE PUSH1 0x20 ADD SWAP2 POP POP PUSH1 0x40 MLOAD DUP1 SWAP2 SUB SWAP1 RETURN JUMPDEST CALLVALUE DUP1 ISZERO PUSH2 0x291 JUMPI PUSH1 0x0 DUP1 REVERT JUMPDEST POP PUSH2 0x2D2 PUSH1 0x4 DUP1 CALLDATASIZE SUB DUP2 ADD SWAP1 DUP1 DUP1 CALLDATALOAD PUSH20 0xFFFFFFFFFFFFFFFFFFFFFFFFFFFFFFFFFFFFFFFF AND SWAP1 PUSH1 0x20 ADD SWAP1 SWAP3 SWAP2 SWAP1 DUP1 CALLDATALOAD ISZERO ISZERO SWAP1 PUSH1 0x20 ADD SWAP1 SWAP3 SWAP2 SWAP1 POP POP POP PUSH2 0x554 JUMP JUMPDEST PUSH1 0x40 MLOAD DUP1 DUP3 ISZERO ISZERO ISZERO ISZERO DUP2 MSTORE PUSH1 0x20 ADD SWAP2 POP POP PUSH1 0x40 MLOAD DUP1 SWAP2 SUB SWAP1 RETURN JUMPDEST CALLVALUE DUP1 ISZERO PUSH2 0x2F8 JUMPI PUSH1 0x0 DUP1 REVERT JUMPDEST POP PUSH2 0x301 PUSH2 0x5C4 JUMP JUMPDEST PUSH1 0x40 MLOAD DUP1 DUP3 PUSH20 0xFFFFFFFFFFFFFFFFFFFFFFFFFFFFFFFFFFFFFFFF AND PUSH20 0xFFFFFFFFFFFFFFFFFFFFFFFFFFFFFFFFFFFFFFFF AND DUP2 MSTORE PUSH1 0x20 ADD SWAP2 POP POP PUSH1 0x40 MLOAD DUP1 SWAP2 SUB SWAP1 RETURN JUMPDEST CALLVALUE DUP1 ISZERO PUSH2 0x34F JUMPI PUSH1 0x0 DUP1 REVERT JUMPDEST POP PUSH2 0x38E PUSH1 0x4 DUP1 CALLDATASIZE SUB DUP2 ADD SWAP1 DUP1 DUP1 CALLDATALOAD PUSH20 0xFFFFFFFFFFFFFFFFFFFFFFFFFFFFFFFFFFFFFFFF AND SWAP1 PUSH1 0x20 ADD SWAP1 SWAP3 SWAP2 SWAP1 DUP1 CALLDATALOAD SWAP1 PUSH1 0x20 ADD SWAP1 SWAP3 SWAP2 SWAP1 POP POP POP PUSH2 0x5EA JUMP JUMPDEST PUSH1 0x40 MLOAD DUP1 DUP3 ISZERO ISZERO ISZERO ISZERO DUP2 MSTORE PUSH1 0x20 ADD SWAP2 POP POP PUSH1 0x40 MLOAD DUP1 SWAP2 SUB SWAP1 RETURN JUMPDEST CALLVALUE DUP1 ISZERO PUSH2 0x3B4 JUMPI PUSH1 0x0 DUP1 REVERT JUMPDEST POP PUSH2 0x3F3 PUSH1 0x4 DUP1 CALLDATASIZE SUB DUP2 ADD SWAP1 DUP1 DUP1 CALLDATALOAD PUSH20 0xFFFFFFFFFFFFFFFFFFFFFFFFFFFFFFFFFFFFFFFF AND SWAP1 PUSH1 0x20 ADD SWAP1 SWAP3 SWAP2 SWAP1 DUP1 CALLDATALOAD SWAP1 PUSH1 0x20 ADD SWAP1 SWAP3 SWAP2 SWAP1 POP POP POP PUSH2 0x5FE JUMP JUMPDEST PUSH1 0x40 MLOAD DUP1 DUP3 ISZERO ISZERO ISZERO ISZERO DUP2 MSTORE PUSH1 0x20 ADD SWAP2 POP POP PUSH1 0x40 MLOAD DUP1 SWAP2 SUB SWAP1 RETURN JUMPDEST CALLVALUE DUP1 ISZERO PUSH2 0x419 JUMPI PUSH1 0x0 DUP1 REVERT JUMPDEST POP PUSH2 0x46E PUSH1 0x4 DUP1 CALLDATASIZE SUB DUP2 ADD SWAP1 DUP1 DUP1 CALLDATALOAD PUSH20 0xFFFFFFFFFFFFFFFFFFFFFFFFFFFFFFFFFFFFFFFF AND SWAP1 PUSH1 0x20 ADD SWAP1 SWAP3 SWAP2 SWAP1 DUP1 CALLDATALOAD PUSH20 0xFFFFFFFFFFFFFFFFFFFFFFFFFFFFFFFFFFFFFFFF AND SWAP1 PUSH1 0x20 ADD SWAP1 SWAP3 SWAP2 SWAP1 POP POP POP PUSH2 0x612 JUMP JUMPDEST PUSH1 0x40 MLOAD DUP1 DUP3 DUP2 MSTORE PUSH1 0x20 ADD SWAP2 POP POP PUSH1 0x40 MLOAD DUP1 SWAP2 SUB SWAP1 RETURN JUMPDEST CALLVALUE DUP1 ISZERO PUSH2 0x490 JUMPI PUSH1 0x0 DUP1 REVERT JUMPDEST POP PUSH2 0x4C5 PUSH1 0x4 DUP1 CALLDATASIZE SUB DUP2 ADD SWAP1 DUP1 DUP1 CALLDATALOAD PUSH20 0xFFFFFFFFFFFFFFFFFFFFFFFFFFFFFFFFFFFFFFFF AND SWAP1 PUSH1 0x20 ADD SWAP1 SWAP3 SWAP2 SWAP1 POP POP POP PUSH2 0x699 JUMP JUMPDEST STOP JUMPDEST PUSH1 0x0 PUSH2 0x4D3 DUP4 DUP4 PUSH2 0x7F1 JUMP JUMPDEST SWAP1 POP SWAP3 SWAP2 POP POP JUMP JUMPDEST PUSH1 0x0 SLOAD DUP2 JUMP JUMPDEST PUSH1 0x0 PUSH2 0x4EE DUP5 DUP5 DUP5 PUSH2 0x8E3 JUMP JUMPDEST SWAP1 POP SWAP4 SWAP3 POP POP POP JUMP JUMPDEST PUSH1 0x0 PUSH2 0x503 DUP4 DUP4 PUSH2 0xD01 JUMP JUMPDEST SWAP1 POP SWAP3 SWAP2 POP POP JUMP JUMPDEST PUSH1 0x0 PUSH1 0x3 PUSH1 0x0 DUP4 PUSH20 0xFFFFFFFFFFFFFFFFFFFFFFFFFFFFFFFFFFFFFFFF AND PUSH20 0xFFFFFFFFFFFFFFFFFFFFFFFFFFFFFFFFFFFFFFFF AND DUP2 MSTORE PUSH1 0x20 ADD SWAP1 DUP2 MSTORE PUSH1 0x20 ADD PUSH1 0x0 KECCAK256 SLOAD SWAP1 POP SWAP2 SWAP1 POP JUMP JUMPDEST PUSH1 0x0 PUSH1 0x4 PUSH1 0x0 SWAP1 SLOAD SWAP1 PUSH2 0x100 EXP SWAP1 DIV PUSH20 0xFFFFFFFFFFFFFFFFFFFFFFFFFFFFFFFFFFFFFFFF AND PUSH20 0xFFFFFFFFFFFFFFFFFFFFFFFFFFFFFFFFFFFFFFFF AND CALLER PUSH20 0xFFFFFFFFFFFFFFFFFFFFFFFFFFFFFFFFFFFFFFFF AND EQ ISZERO ISZERO PUSH2 0x5B2 JUMPI PUSH1 0x0 DUP1 REVERT JUMPDEST PUSH2 0x5BC DUP4 DUP4 PUSH2 0xF92 JUMP JUMPDEST SWAP1 POP SWAP3 SWAP2 POP POP JUMP JUMPDEST PUSH1 0x4 PUSH1 0x0 SWAP1 SLOAD SWAP1 PUSH2 0x100 EXP SWAP1 DIV PUSH20 0xFFFFFFFFFFFFFFFFFFFFFFFFFFFFFFFFFFFFFFFF AND DUP2 JUMP JUMPDEST PUSH1 0x0 PUSH2 0x5F6 DUP4 DUP4 PUSH2 0x10A6 JUMP JUMPDEST SWAP1 POP SWAP3 SWAP2 POP POP JUMP JUMPDEST PUSH1 0x0 PUSH2 0x60A DUP4 DUP4 PUSH2 0x1329 JUMP JUMPDEST SWAP1 POP SWAP3 SWAP2 POP POP JUMP JUMPDEST PUSH1 0x0 PUSH1 0x1 PUSH1 0x0 DUP5 PUSH20 0xFFFFFFFFFFFFFFFFFFFFFFFFFFFFFFFFFFFFFFFF AND PUSH20 0xFFFFFFFFFFFFFFFFFFFFFFFFFFFFFFFFFFFFFFFF AND DUP2 MSTORE PUSH1 0x20 ADD SWAP1 DUP2 MSTORE PUSH1 0x20 ADD PUSH1 0x0 KECCAK256 PUSH1 0x0 DUP4 PUSH20 0xFFFFFFFFFFFFFFFFFFFFFFFFFFFFFFFFFFFFFFFF AND PUSH20 0xFFFFFFFFFFFFFFFFFFFFFFFFFFFFFFFFFFFFFFFF AND DUP2 MSTORE PUSH1 0x20 ADD SWAP1 DUP2 MSTORE PUSH1 0x20 ADD PUSH1 0x0 KECCAK256 SLOAD SWAP1 POP SWAP3 SWAP2 POP POP JUMP JUMPDEST PUSH1 0x4 PUSH1 0x0 SWAP1 SLOAD SWAP1 PUSH2 0x100 EXP SWAP1 DIV PUSH20 0xFFFFFFFFFFFFFFFFFFFFFFFFFFFFFFFFFFFFFFFF AND PUSH20 0xFFFFFFFFFFFFFFFFFFFFFFFFFFFFFFFFFFFFFFFF AND CALLER PUSH20 0xFFFFFFFFFFFFFFFFFFFFFFFFFFFFFFFFFFFFFFFF AND EQ ISZERO ISZERO PUSH2 0x6F5 JUMPI PUSH1 0x0 DUP1 REVERT JUMPDEST PUSH1 0x0 PUSH20 0xFFFFFFFFFFFFFFFFFFFFFFFFFFFFFFFFFFFFFFFF AND DUP2 PUSH20 0xFFFFFFFFFFFFFFFFFFFFFFFFFFFFFFFFFFFFFFFF AND EQ ISZERO ISZERO ISZERO PUSH2 0x731 JUMPI PUSH1 0x0 DUP1 REVERT JUMPDEST DUP1 PUSH20 0xFFFFFFFFFFFFFFFFFFFFFFFFFFFFFFFFFFFFFFFF AND PUSH1 0x4 PUSH1 0x0 SWAP1 SLOAD SWAP1 PUSH2 0x100 EXP SWAP1 DIV PUSH20 0xFFFFFFFFFFFFFFFFFFFFFFFFFFFFFFFFFFFFFFFF AND PUSH20 0xFFFFFFFFFFFFFFFFFFFFFFFFFFFFFFFFFFFFFFFF AND PUSH32 0x8BE0079C531659141344CD1FD0A4F28419497F9722A3DAAFE3B4186F6B6457E0 PUSH1 0x40 MLOAD PUSH1 0x40 MLOAD DUP1 SWAP2 SUB SWAP1 LOG3 DUP1 PUSH1 0x4 PUSH1 0x0 PUSH2 0x100 EXP DUP2 SLOAD DUP2 PUSH20 0xFFFFFFFFFFFFFFFFFFFFFFFFFFFFFFFFFFFFFFFF MUL NOT AND SWAP1 DUP4 PUSH20 0xFFFFFFFFFFFFFFFFFFFFFFFFFFFFFFFFFFFFFFFF AND MUL OR SWAP1 SSTORE POP POP JUMP JUMPDEST PUSH1 0x0 DUP2 PUSH1 0x1 PUSH1 0x0 CALLER PUSH20 0xFFFFFFFFFFFFFFFFFFFFFFFFFFFFFFFFFFFFFFFF AND PUSH20 0xFFFFFFFFFFFFFFFFFFFFFFFFFFFFFFFFFFFFFFFF AND DUP2 MSTORE PUSH1 0x20 ADD SWAP1 DUP2 MSTORE PUSH1 0x20 ADD PUSH1 0x0 KECCAK256 PUSH1 0x0 DUP6 PUSH20 0xFFFFFFFFFFFFFFFFFFFFFFFFFFFFFFFFFFFFFFFF AND PUSH20 0xFFFFFFFFFFFFFFFFFFFFFFFFFFFFFFFFFFFFFFFF AND DUP2 MSTORE PUSH1 0x20 ADD SWAP1 DUP2 MSTORE PUSH1 0x20 ADD PUSH1 0x0 KECCAK256 DUP2 SWAP1 SSTORE POP DUP3 PUSH20 0xFFFFFFFFFFFFFFFFFFFFFFFFFFFFFFFFFFFFFFFF AND CALLER PUSH20 0xFFFFFFFFFFFFFFFFFFFFFFFFFFFFFFFFFFFFFFFF AND PUSH32 0x8C5BE1E5EBEC7D5BD14F71427D1E84F3DD0314C0F7B2291E5B200AC8C7C3B925 DUP5 PUSH1 0x40 MLOAD DUP1 DUP3 DUP2 MSTORE PUSH1 0x20 ADD SWAP2 POP POP PUSH1 0x40 MLOAD DUP1 SWAP2 SUB SWAP1 LOG3 PUSH1 0x1 SWAP1 POP SWAP3 SWAP2 POP POP JUMP JUMPDEST PUSH1 0x0 DUP1 ISZERO ISZERO PUSH1 0x2 PUSH1 0x0 CALLER PUSH20 0xFFFFFFFFFFFFFFFFFFFFFFFFFFFFFFFFFFFFFFFF AND PUSH20 0xFFFFFFFFFFFFFFFFFFFFFFFFFFFFFFFFFFFFFFFF AND DUP2 MSTORE PUSH1 0x20 ADD SWAP1 DUP2 MSTORE PUSH1 0x20 ADD PUSH1 0x0 KECCAK256 PUSH1 0x0 SWAP1 SLOAD SWAP1 PUSH2 0x100 EXP SWAP1 DIV PUSH1 0xFF AND ISZERO ISZERO EQ ISZERO ISZERO PUSH2 0x943 JUMPI PUSH1 0x0 DUP1 REVERT JUMPDEST PUSH1 0x0 PUSH20 0xFFFFFFFFFFFFFFFFFFFFFFFFFFFFFFFFFFFFFFFF AND DUP4 PUSH20 0xFFFFFFFFFFFFFFFFFFFFFFFFFFFFFFFFFFFFFFFF AND EQ ISZERO ISZERO ISZERO PUSH2 0x97F JUMPI PUSH1 0x0 DUP1 REVERT JUMPDEST PUSH1 0x3 PUSH1 0x0 DUP6 PUSH20 0xFFFFFFFFFFFFFFFFFFFFFFFFFFFFFFFFFFFFFFFF AND PUSH20 0xFFFFFFFFFFFFFFFFFFFFFFFFFFFFFFFFFFFFFFFF AND DUP2 MSTORE PUSH1 0x20 ADD SWAP1 DUP2 MSTORE PUSH1 0x20 ADD PUSH1 0x0 KECCAK256 SLOAD DUP3 GT ISZERO ISZERO ISZERO PUSH2 0x9CD JUMPI PUSH1 0x0 DUP1 REVERT JUMPDEST PUSH1 0x1 PUSH1 0x0 DUP6 PUSH20 0xFFFFFFFFFFFFFFFFFFFFFFFFFFFFFFFFFFFFFFFF AND PUSH20 0xFFFFFFFFFFFFFFFFFFFFFFFFFFFFFFFFFFFFFFFF AND DUP2 MSTORE PUSH1 0x20 ADD SWAP1 DUP2 MSTORE PUSH1 0x20 ADD PUSH1 0x0 KECCAK256 PUSH1 0x0 CALLER PUSH20 0xFFFFFFFFFFFFFFFFFFFFFFFFFFFFFFFFFFFFFFFF AND PUSH20 0xFFFFFFFFFFFFFFFFFFFFFFFFFFFFFFFFFFFFFFFF AND DUP2 MSTORE PUSH1 0x20 ADD SWAP1 DUP2 MSTORE PUSH1 0x20 ADD PUSH1 0x0 KECCAK256 SLOAD DUP3 GT ISZERO ISZERO ISZERO PUSH2 0xA58 JUMPI PUSH1 0x0 DUP1 REVERT JUMPDEST PUSH2 0xAAA DUP3 PUSH1 0x3 PUSH1 0x0 DUP8 PUSH20 0xFFFFFFFFFFFFFFFFFFFFFFFFFFFFFFFFFFFFFFFF AND PUSH20 0xFFFFFFFFFFFFFFFFFFFFFFFFFFFFFFFFFFFFFFFF AND DUP2 MSTORE PUSH1 0x20 ADD SWAP1 DUP2 MSTORE PUSH1 0x20 ADD PUSH1 0x0 KECCAK256 SLOAD PUSH2 0x1525 SWAP1 SWAP2 SWAP1 PUSH4 0xFFFFFFFF AND JUMP JUMPDEST PUSH1 0x3 PUSH1 0x0 DUP7 PUSH20 0xFFFFFFFFFFFFFFFFFFFFFFFFFFFFFFFFFFFFFFFF AND PUSH20 0xFFFFFFFFFFFFFFFFFFFFFFFFFFFFFFFFFFFFFFFF AND DUP2 MSTORE PUSH1 0x20 ADD SWAP1 DUP2 MSTORE PUSH1 0x20 ADD PUSH1 0x0 KECCAK256 DUP2 SWAP1 SSTORE POP PUSH2 0xB3F DUP3 PUSH1 0x3 PUSH1 0x0 DUP7 PUSH20 0xFFFFFFFFFFFFFFFFFFFFFFFFFFFFFFFFFFFFFFFF AND PUSH20 0xFFFFFFFFFFFFFFFFFFFFFFFFFFFFFFFFFFFFFFFF AND DUP2 MSTORE PUSH1 0x20 ADD SWAP1 DUP2 MSTORE PUSH1 0x20 ADD PUSH1 0x0 KECCAK256 SLOAD PUSH2 0x153E SWAP1 SWAP2 SWAP1 PUSH4 0xFFFFFFFF AND JUMP JUMPDEST PUSH1 0x3 PUSH1 0x0 DUP6 PUSH20 0xFFFFFFFFFFFFFFFFFFFFFFFFFFFFFFFFFFFFFFFF AND PUSH20 0xFFFFFFFFFFFFFFFFFFFFFFFFFFFFFFFFFFFFFFFF AND DUP2 MSTORE PUSH1 0x20 ADD SWAP1 DUP2 MSTORE PUSH1 0x20 ADD PUSH1 0x0 KECCAK256 DUP2 SWAP1 SSTORE POP PUSH2 0xC11 DUP3 PUSH1 0x1 PUSH1 0x0 DUP8 PUSH20 0xFFFFFFFFFFFFFFFFFFFFFFFFFFFFFFFFFFFFFFFF AND PUSH20 0xFFFFFFFFFFFFFFFFFFFFFFFFFFFFFFFFFFFFFFFF AND DUP2 MSTORE PUSH1 0x20 ADD SWAP1 DUP2 MSTORE PUSH1 0x20 ADD PUSH1 0x0 KECCAK256 PUSH1 0x0 CALLER PUSH20 0xFFFFFFFFFFFFFFFFFFFFFFFFFFFFFFFFFFFFFFFF AND PUSH20 0xFFFFFFFFFFFFFFFFFFFFFFFFFFFFFFFFFFFFFFFF AND DUP2 MSTORE PUSH1 0x20 ADD SWAP1 DUP2 MSTORE PUSH1 0x20 ADD PUSH1 0x0 KECCAK256 SLOAD PUSH2 0x1525 SWAP1 SWAP2 SWAP1 PUSH4 0xFFFFFFFF AND JUMP JUMPDEST PUSH1 0x1 PUSH1 0x0 DUP7 PUSH20 0xFFFFFFFFFFFFFFFFFFFFFFFFFFFFFFFFFFFFFFFF AND PUSH20 0xFFFFFFFFFFFFFFFFFFFFFFFFFFFFFFFFFFFFFFFF AND DUP2 MSTORE PUSH1 0x20 ADD SWAP1 DUP2 MSTORE PUSH1 0x20 ADD PUSH1 0x0 KECCAK256 PUSH1 0x0 CALLER PUSH20 0xFFFFFFFFFFFFFFFFFFFFFFFFFFFFFFFFFFFFFFFF AND PUSH20 0xFFFFFFFFFFFFFFFFFFFFFFFFFFFFFFFFFFFFFFFF AND DUP2 MSTORE PUSH1 0x20 ADD SWAP1 DUP2 MSTORE PUSH1 0x20 ADD PUSH1 0x0 KECCAK256 DUP2 SWAP1 SSTORE POP DUP3 PUSH20 0xFFFFFFFFFFFFFFFFFFFFFFFFFFFFFFFFFFFFFFFF AND DUP5 PUSH20 0xFFFFFFFFFFFFFFFFFFFFFFFFFFFFFFFFFFFFFFFF AND PUSH32 0xDDF252AD1BE2C89B69C2B068FC378DAA952BA7F163C4A11628F55A4DF523B3EF DUP5 PUSH1 0x40 MLOAD DUP1 DUP3 DUP2 MSTORE PUSH1 0x20 ADD SWAP2 POP POP PUSH1 0x40 MLOAD DUP1 SWAP2 SUB SWAP1 LOG3 PUSH1 0x1 SWAP1 POP SWAP4 SWAP3 POP POP POP JUMP JUMPDEST PUSH1 0x0 DUP1 PUSH1 0x1 PUSH1 0x0 CALLER PUSH20 0xFFFFFFFFFFFFFFFFFFFFFFFFFFFFFFFFFFFFFFFF AND PUSH20 0xFFFFFFFFFFFFFFFFFFFFFFFFFFFFFFFFFFFFFFFF AND DUP2 MSTORE PUSH1 0x20 ADD SWAP1 DUP2 MSTORE PUSH1 0x20 ADD PUSH1 0x0 KECCAK256 PUSH1 0x0 DUP6 PUSH20 0xFFFFFFFFFFFFFFFFFFFFFFFFFFFFFFFFFFFFFFFF AND PUSH20 0xFFFFFFFFFFFFFFFFFFFFFFFFFFFFFFFFFFFFFFFF AND DUP2 MSTORE PUSH1 0x20 ADD SWAP1 DUP2 MSTORE PUSH1 0x20 ADD PUSH1 0x0 KECCAK256 SLOAD SWAP1 POP DUP1 DUP4 GT ISZERO PUSH2 0xE12 JUMPI PUSH1 0x0 PUSH1 0x1 PUSH1 0x0 CALLER PUSH20 0xFFFFFFFFFFFFFFFFFFFFFFFFFFFFFFFFFFFFFFFF AND PUSH20 0xFFFFFFFFFFFFFFFFFFFFFFFFFFFFFFFFFFFFFFFF AND DUP2 MSTORE PUSH1 0x20 ADD SWAP1 DUP2 MSTORE PUSH1 0x20 ADD PUSH1 0x0 KECCAK256 PUSH1 0x0 DUP7 PUSH20 0xFFFFFFFFFFFFFFFFFFFFFFFFFFFFFFFFFFFFFFFF AND PUSH20 0xFFFFFFFFFFFFFFFFFFFFFFFFFFFFFFFFFFFFFFFF AND DUP2 MSTORE PUSH1 0x20 ADD SWAP1 DUP2 MSTORE PUSH1 0x20 ADD PUSH1 0x0 KECCAK256 DUP2 SWAP1 SSTORE POP PUSH2 0xEA6 JUMP JUMPDEST PUSH2 0xE25 DUP4 DUP3 PUSH2 0x1525 SWAP1 SWAP2 SWAP1 PUSH4 0xFFFFFFFF AND JUMP JUMPDEST PUSH1 0x1 PUSH1 0x0 CALLER PUSH20 0xFFFFFFFFFFFFFFFFFFFFFFFFFFFFFFFFFFFFFFFF AND PUSH20 0xFFFFFFFFFFFFFFFFFFFFFFFFFFFFFFFFFFFFFFFF AND DUP2 MSTORE PUSH1 0x20 ADD SWAP1 DUP2 MSTORE PUSH1 0x20 ADD PUSH1 0x0 KECCAK256 PUSH1 0x0 DUP7 PUSH20 0xFFFFFFFFFFFFFFFFFFFFFFFFFFFFFFFFFFFFFFFF AND PUSH20 0xFFFFFFFFFFFFFFFFFFFFFFFFFFFFFFFFFFFFFFFF AND DUP2 MSTORE PUSH1 0x20 ADD SWAP1 DUP2 MSTORE PUSH1 0x20 ADD PUSH1 0x0 KECCAK256 DUP2 SWAP1 SSTORE POP JUMPDEST DUP4 PUSH20 0xFFFFFFFFFFFFFFFFFFFFFFFFFFFFFFFFFFFFFFFF AND CALLER PUSH20 0xFFFFFFFFFFFFFFFFFFFFFFFFFFFFFFFFFFFFFFFF AND PUSH32 0x8C5BE1E5EBEC7D5BD14F71427D1E84F3DD0314C0F7B2291E5B200AC8C7C3B925 PUSH1 0x1 PUSH1 0x0 CALLER PUSH20 0xFFFFFFFFFFFFFFFFFFFFFFFFFFFFFFFFFFFFFFFF AND PUSH20 0xFFFFFFFFFFFFFFFFFFFFFFFFFFFFFFFFFFFFFFFF AND DUP2 MSTORE PUSH1 0x20 ADD SWAP1 DUP2 MSTORE PUSH1 0x20 ADD PUSH1 0x0 KECCAK256 PUSH1 0x0 DUP9 PUSH20 0xFFFFFFFFFFFFFFFFFFFFFFFFFFFFFFFFFFFFFFFF AND PUSH20 0xFFFFFFFFFFFFFFFFFFFFFFFFFFFFFFFFFFFFFFFF AND DUP2 MSTORE PUSH1 0x20 ADD SWAP1 DUP2 MSTORE PUSH1 0x20 ADD PUSH1 0x0 KECCAK256 SLOAD PUSH1 0x40 MLOAD DUP1 DUP3 DUP2 MSTORE PUSH1 0x20 ADD SWAP2 POP POP PUSH1 0x40 MLOAD DUP1 SWAP2 SUB SWAP1 LOG3 PUSH1 0x1 SWAP2 POP POP SWAP3 SWAP2 POP POP JUMP JUMPDEST PUSH1 0x0 DUP2 ISZERO ISZERO PUSH1 0x2 PUSH1 0x0 DUP6 PUSH20 0xFFFFFFFFFFFFFFFFFFFFFFFFFFFFFFFFFFFFFFFF AND PUSH20 0xFFFFFFFFFFFFFFFFFFFFFFFFFFFFFFFFFFFFFFFF AND DUP2 MSTORE PUSH1 0x20 ADD SWAP1 DUP2 MSTORE PUSH1 0x20 ADD PUSH1 0x0 KECCAK256 PUSH1 0x0 SWAP1 SLOAD SWAP1 PUSH2 0x100 EXP SWAP1 DIV PUSH1 0xFF AND ISZERO ISZERO EQ ISZERO ISZERO ISZERO PUSH2 0xFF3 JUMPI PUSH1 0x0 DUP1 REVERT JUMPDEST DUP2 PUSH1 0x2 PUSH1 0x0 DUP6 PUSH20 0xFFFFFFFFFFFFFFFFFFFFFFFFFFFFFFFFFFFFFFFF AND PUSH20 0xFFFFFFFFFFFFFFFFFFFFFFFFFFFFFFFFFFFFFFFF AND DUP2 MSTORE PUSH1 0x20 ADD SWAP1 DUP2 MSTORE PUSH1 0x20 ADD PUSH1 0x0 KECCAK256 PUSH1 0x0 PUSH2 0x100 EXP DUP2 SLOAD DUP2 PUSH1 0xFF MUL NOT AND SWAP1 DUP4 ISZERO ISZERO MUL OR SWAP1 SSTORE POP DUP3 PUSH20 0xFFFFFFFFFFFFFFFFFFFFFFFFFFFFFFFFFFFFFFFF AND PUSH32 0xF7E58A63A036E3A7EF7921F83B6AE47930CF5C293DD3BFE7A857C6863409046D DUP4 PUSH1 0x40 MLOAD DUP1 DUP3 ISZERO ISZERO ISZERO ISZERO DUP2 MSTORE PUSH1 0x20 ADD SWAP2 POP POP PUSH1 0x40 MLOAD DUP1 SWAP2 SUB SWAP1 LOG2 PUSH1 0x1 SWAP1 POP SWAP3 SWAP2 POP POP JUMP JUMPDEST PUSH1 0x0 DUP1 ISZERO ISZERO PUSH1 0x2 PUSH1 0x0 CALLER PUSH20 0xFFFFFFFFFFFFFFFFFFFFFFFFFFFFFFFFFFFFFFFF AND PUSH20 0xFFFFFFFFFFFFFFFFFFFFFFFFFFFFFFFFFFFFFFFF AND DUP2 MSTORE PUSH1 0x20 ADD SWAP1 DUP2 MSTORE PUSH1 0x20 ADD PUSH1 0x0 KECCAK256 PUSH1 0x0 SWAP1 SLOAD SWAP1 PUSH2 0x100 EXP SWAP1 DIV PUSH1 0xFF AND ISZERO ISZERO EQ ISZERO ISZERO PUSH2 0x1106 JUMPI PUSH1 0x0 DUP1 REVERT JUMPDEST PUSH1 0x0 PUSH20 0xFFFFFFFFFFFFFFFFFFFFFFFFFFFFFFFFFFFFFFFF AND DUP4 PUSH20 0xFFFFFFFFFFFFFFFFFFFFFFFFFFFFFFFFFFFFFFFF AND EQ ISZERO ISZERO ISZERO PUSH2 0x1142 JUMPI PUSH1 0x0 DUP1 REVERT JUMPDEST PUSH1 0x3 PUSH1 0x0 CALLER PUSH20 0xFFFFFFFFFFFFFFFFFFFFFFFFFFFFFFFFFFFFFFFF AND PUSH20 0xFFFFFFFFFFFFFFFFFFFFFFFFFFFFFFFFFFFFFFFF AND DUP2 MSTORE PUSH1 0x20 ADD SWAP1 DUP2 MSTORE PUSH1 0x20 ADD PUSH1 0x0 KECCAK256 SLOAD DUP3 GT ISZERO ISZERO ISZERO PUSH2 0x1190 JUMPI PUSH1 0x0 DUP1 REVERT JUMPDEST PUSH2 0x11E2 DUP3 PUSH1 0x3 PUSH1 0x0 CALLER PUSH20 0xFFFFFFFFFFFFFFFFFFFFFFFFFFFFFFFFFFFFFFFF AND PUSH20 0xFFFFFFFFFFFFFFFFFFFFFFFFFFFFFFFFFFFFFFFF AND DUP2 MSTORE PUSH1 0x20 ADD SWAP1 DUP2 MSTORE PUSH1 0x20 ADD PUSH1 0x0 KECCAK256 SLOAD PUSH2 0x1525 SWAP1 SWAP2 SWAP1 PUSH4 0xFFFFFFFF AND JUMP JUMPDEST PUSH1 0x3 PUSH1 0x0 CALLER PUSH20 0xFFFFFFFFFFFFFFFFFFFFFFFFFFFFFFFFFFFFFFFF AND PUSH20 0xFFFFFFFFFFFFFFFFFFFFFFFFFFFFFFFFFFFFFFFF AND DUP2 MSTORE PUSH1 0x20 ADD SWAP1 DUP2 MSTORE PUSH1 0x20 ADD PUSH1 0x0 KECCAK256 DUP2 SWAP1 SSTORE POP PUSH2 0x1277 DUP3 PUSH1 0x3 PUSH1 0x0 DUP7 PUSH20 0xFFFFFFFFFFFFFFFFFFFFFFFFFFFFFFFFFFFFFFFF AND PUSH20 0xFFFFFFFFFFFFFFFFFFFFFFFFFFFFFFFFFFFFFFFF AND DUP2 MSTORE PUSH1 0x20 ADD SWAP1 DUP2 MSTORE PUSH1 0x20 ADD PUSH1 0x0 KECCAK256 SLOAD PUSH2 0x153E SWAP1 SWAP2 SWAP1 PUSH4 0xFFFFFFFF AND JUMP JUMPDEST PUSH1 0x3 PUSH1 0x0 DUP6 PUSH20 0xFFFFFFFFFFFFFFFFFFFFFFFFFFFFFFFFFFFFFFFF AND PUSH20 0xFFFFFFFFFFFFFFFFFFFFFFFFFFFFFFFFFFFFFFFF AND DUP2 MSTORE PUSH1 0x20 ADD SWAP1 DUP2 MSTORE PUSH1 0x20 ADD PUSH1 0x0 KECCAK256 DUP2 SWAP1 SSTORE POP DUP3 PUSH20 0xFFFFFFFFFFFFFFFFFFFFFFFFFFFFFFFFFFFFFFFF AND CALLER PUSH20 0xFFFFFFFFFFFFFFFFFFFFFFFFFFFFFFFFFFFFFFFF AND PUSH32 0xDDF252AD1BE2C89B69C2B068FC378DAA952BA7F163C4A11628F55A4DF523B3EF DUP5 PUSH1 0x40 MLOAD DUP1 DUP3 DUP2 MSTORE PUSH1 0x20 ADD SWAP2 POP POP PUSH1 0x40 MLOAD DUP1 SWAP2 SUB SWAP1 LOG3 PUSH1 0x1 SWAP1 POP SWAP3 SWAP2 POP POP JUMP JUMPDEST PUSH1 0x0 PUSH2 0x13BA DUP3 PUSH1 0x1 PUSH1 0x0 CALLER PUSH20 0xFFFFFFFFFFFFFFFFFFFFFFFFFFFFFFFFFFFFFFFF AND PUSH20 0xFFFFFFFFFFFFFFFFFFFFFFFFFFFFFFFFFFFFFFFF AND DUP2 MSTORE PUSH1 0x20 ADD SWAP1 DUP2 MSTORE PUSH1 0x20 ADD PUSH1 0x0 KECCAK256 PUSH1 0x0 DUP7 PUSH20 0xFFFFFFFFFFFFFFFFFFFFFFFFFFFFFFFFFFFFFFFF AND PUSH20 0xFFFFFFFFFFFFFFFFFFFFFFFFFFFFFFFFFFFFFFFF AND DUP2 MSTORE PUSH1 0x20 ADD SWAP1 DUP2 MSTORE PUSH1 0x20 ADD PUSH1 0x0 KECCAK256 SLOAD PUSH2 0x153E SWAP1 SWAP2 SWAP1 PUSH4 0xFFFFFFFF AND JUMP JUMPDEST PUSH1 0x1 PUSH1 0x0 CALLER PUSH20 0xFFFFFFFFFFFFFFFFFFFFFFFFFFFFFFFFFFFFFFFF AND PUSH20 0xFFFFFFFFFFFFFFFFFFFFFFFFFFFFFFFFFFFFFFFF AND DUP2 MSTORE PUSH1 0x20 ADD SWAP1 DUP2 MSTORE PUSH1 0x20 ADD PUSH1 0x0 KECCAK256 PUSH1 0x0 DUP6 PUSH20 0xFFFFFFFFFFFFFFFFFFFFFFFFFFFFFFFFFFFFFFFF AND PUSH20 0xFFFFFFFFFFFFFFFFFFFFFFFFFFFFFFFFFFFFFFFF AND DUP2 MSTORE PUSH1 0x20 ADD SWAP1 DUP2 MSTORE PUSH1 0x20 ADD PUSH1 0x0 KECCAK256 DUP2 SWAP1 SSTORE POP DUP3 PUSH20 0xFFFFFFFFFFFFFFFFFFFFFFFFFFFFFFFFFFFFFFFF AND CALLER PUSH20 0xFFFFFFFFFFFFFFFFFFFFFFFFFFFFFFFFFFFFFFFF AND PUSH32 0x8C5BE1E5EBEC7D5BD14F71427D1E84F3DD0314C0F7B2291E5B200AC8C7C3B925 PUSH1 0x1 PUSH1 0x0 CALLER PUSH20 0xFFFFFFFFFFFFFFFFFFFFFFFFFFFFFFFFFFFFFFFF AND PUSH20 0xFFFFFFFFFFFFFFFFFFFFFFFFFFFFFFFFFFFFFFFF AND DUP2 MSTORE PUSH1 0x20 ADD SWAP1 DUP2 MSTORE PUSH1 0x20 ADD PUSH1 0x0 KECCAK256 PUSH1 0x0 DUP8 PUSH20 0xFFFFFFFFFFFFFFFFFFFFFFFFFFFFFFFFFFFFFFFF AND PUSH20 0xFFFFFFFFFFFFFFFFFFFFFFFFFFFFFFFFFFFFFFFF AND DUP2 MSTORE PUSH1 0x20 ADD SWAP1 DUP2 MSTORE PUSH1 0x20 ADD PUSH1 0x0 KECCAK256 SLOAD PUSH1 0x40 MLOAD DUP1 DUP3 DUP2 MSTORE PUSH1 0x20 ADD SWAP2 POP POP PUSH1 0x40 MLOAD DUP1 SWAP2 SUB SWAP1 LOG3 PUSH1 0x1 SWAP1 POP SWAP3 SWAP2 POP POP JUMP JUMPDEST PUSH1 0x0 DUP3 DUP3 GT ISZERO ISZERO ISZERO PUSH2 0x1533 JUMPI INVALID JUMPDEST DUP2 DUP4 SUB SWAP1 POP SWAP3 SWAP2 POP POP JUMP JUMPDEST PUSH1 0x0 DUP1 DUP3 DUP5 ADD SWAP1 POP DUP4 DUP2 LT ISZERO ISZERO ISZERO PUSH2 0x1552 JUMPI INVALID JUMPDEST DUP1 SWAP2 POP POP SWAP3 SWAP2 POP POP JUMP STOP LOG1 PUSH6 0x627A7A723058 KECCAK256 0xda EXP PUSH7 0xCB3019B8C203B4 0xdf 0xb2 0xe8 DUP8 SWAP3 JUMPI REVERT 0xeb MOD 0xd4 0xb1 0xc8 0xcb PC 0x21 LOG1 GAS 0xe8 0xe3 0x3f 0xed POP STOP 0x29 "
				},
				"gasEstimates": {
					"creation": {
						"codeDepositCost": "1102400",
						"executionCost": "1147",
						"totalCost": "1103547"
					},
					"external": {
						"allowance(address,address)": "882",
						"approve(address,uint256)": "22379",
						"balanceOf(address)": "647",
						"blackListAddress(address,bool)": "22934",
						"decreaseApproval(address,uint256)": "infinite",
						"increaseApproval(address,uint256)": "infinite",
						"owner()": "574",
						"totalSupply()": "416",
						"transfer(address,uint256)": "infinite",
						"transferFrom(address,address,uint256)": "infinite",
						"transferOwnership(address)": "22785"
					}
				},
				"methodIdentifiers": {
					"allowance(address,address)": "dd62ed3e",
					"approve(address,uint256)": "095ea7b3",
					"balanceOf(address)": "70a08231",
					"blackListAddress(address,bool)": "794be707",
					"decreaseApproval(address,uint256)": "66188463",
					"increaseApproval(address,uint256)": "d73dd623",
					"owner()": "8da5cb5b",
					"totalSupply()": "18160ddd",
					"transfer(address,uint256)": "a9059cbb",
					"transferFrom(address,address,uint256)": "23b872dd",
					"transferOwnership(address)": "f2fde38b"
				}
			},
			"userdoc": {
				"methods": {}
			}
		}
	}
}